{
  "_format": "hh-sol-artifact-1",
  "contractName": "NFTLottery",
  "sourceName": "contracts/matic-nft.sol",
  "abi": [
    {
      "inputs": [],
      "stateMutability": "nonpayable",
      "type": "constructor"
    },
    {
      "anonymous": false,
      "inputs": [
        {
          "indexed": true,
          "internalType": "address",
          "name": "owner",
          "type": "address"
        },
        {
          "indexed": true,
          "internalType": "address",
          "name": "approved",
          "type": "address"
        },
        {
          "indexed": true,
          "internalType": "uint256",
          "name": "tokenId",
          "type": "uint256"
        }
      ],
      "name": "Approval",
      "type": "event"
    },
    {
      "anonymous": false,
      "inputs": [
        {
          "indexed": true,
          "internalType": "address",
          "name": "owner",
          "type": "address"
        },
        {
          "indexed": true,
          "internalType": "address",
          "name": "operator",
          "type": "address"
        },
        {
          "indexed": false,
          "internalType": "bool",
          "name": "approved",
          "type": "bool"
        }
      ],
      "name": "ApprovalForAll",
      "type": "event"
    },
    {
      "anonymous": false,
      "inputs": [
        {
          "indexed": true,
          "internalType": "address",
          "name": "from",
          "type": "address"
        },
        {
          "indexed": true,
          "internalType": "address",
          "name": "to",
          "type": "address"
        },
        {
          "indexed": true,
          "internalType": "uint256",
          "name": "tokenId",
          "type": "uint256"
        }
      ],
      "name": "Transfer",
      "type": "event"
    },
    {
      "inputs": [
        {
          "internalType": "address",
          "name": "to",
          "type": "address"
        },
        {
          "internalType": "uint256",
          "name": "tokenId",
          "type": "uint256"
        }
      ],
      "name": "approve",
      "outputs": [],
      "stateMutability": "nonpayable",
      "type": "function"
    },
    {
      "inputs": [
        {
          "internalType": "address",
          "name": "owner",
          "type": "address"
        }
      ],
      "name": "balanceOf",
      "outputs": [
        {
          "internalType": "uint256",
          "name": "",
          "type": "uint256"
        }
      ],
      "stateMutability": "view",
      "type": "function"
    },
    {
      "inputs": [
        {
          "internalType": "uint256",
          "name": "tokenId",
          "type": "uint256"
        }
      ],
      "name": "getApproved",
      "outputs": [
        {
          "internalType": "address",
          "name": "",
          "type": "address"
        }
      ],
      "stateMutability": "view",
      "type": "function"
    },
    {
      "inputs": [
        {
          "internalType": "address",
          "name": "owner",
          "type": "address"
        },
        {
          "internalType": "address",
          "name": "operator",
          "type": "address"
        }
      ],
      "name": "isApprovedForAll",
      "outputs": [
        {
          "internalType": "bool",
          "name": "",
          "type": "bool"
        }
      ],
      "stateMutability": "view",
      "type": "function"
    },
    {
      "inputs": [
        {
          "internalType": "uint256",
          "name": "tokenId",
          "type": "uint256"
        }
      ],
      "name": "makeFirstWord",
      "outputs": [
        {
          "internalType": "string",
          "name": "",
          "type": "string"
        }
      ],
      "stateMutability": "view",
      "type": "function"
    },
    {
      "inputs": [
        {
          "internalType": "uint256",
          "name": "tokenId",
          "type": "uint256"
        }
      ],
      "name": "makeSecondWord",
      "outputs": [
        {
          "internalType": "string",
          "name": "",
          "type": "string"
        }
      ],
      "stateMutability": "view",
      "type": "function"
    },
    {
      "inputs": [
        {
          "internalType": "uint256",
          "name": "tokenId",
          "type": "uint256"
        }
      ],
      "name": "makeThirdWord",
      "outputs": [
        {
          "internalType": "string",
          "name": "",
          "type": "string"
        }
      ],
      "stateMutability": "view",
      "type": "function"
    },
    {
      "inputs": [],
      "name": "mintAnNFT",
      "outputs": [],
      "stateMutability": "nonpayable",
      "type": "function"
    },
    {
      "inputs": [],
      "name": "name",
      "outputs": [
        {
          "internalType": "string",
          "name": "",
          "type": "string"
        }
      ],
      "stateMutability": "view",
      "type": "function"
    },
    {
      "inputs": [
        {
          "internalType": "uint256",
          "name": "tokenId",
          "type": "uint256"
        }
      ],
      "name": "ownerOf",
      "outputs": [
        {
          "internalType": "address",
          "name": "",
          "type": "address"
        }
      ],
      "stateMutability": "view",
      "type": "function"
    },
    {
      "inputs": [
        {
          "internalType": "address",
          "name": "from",
          "type": "address"
        },
        {
          "internalType": "address",
          "name": "to",
          "type": "address"
        },
        {
          "internalType": "uint256",
          "name": "tokenId",
          "type": "uint256"
        }
      ],
      "name": "safeTransferFrom",
      "outputs": [],
      "stateMutability": "nonpayable",
      "type": "function"
    },
    {
      "inputs": [
        {
          "internalType": "address",
          "name": "from",
          "type": "address"
        },
        {
          "internalType": "address",
          "name": "to",
          "type": "address"
        },
        {
          "internalType": "uint256",
          "name": "tokenId",
          "type": "uint256"
        },
        {
          "internalType": "bytes",
          "name": "data",
          "type": "bytes"
        }
      ],
      "name": "safeTransferFrom",
      "outputs": [],
      "stateMutability": "nonpayable",
      "type": "function"
    },
    {
      "inputs": [
        {
          "internalType": "address",
          "name": "operator",
          "type": "address"
        },
        {
          "internalType": "bool",
          "name": "approved",
          "type": "bool"
        }
      ],
      "name": "setApprovalForAll",
      "outputs": [],
      "stateMutability": "nonpayable",
      "type": "function"
    },
    {
      "inputs": [
        {
          "internalType": "bytes4",
          "name": "interfaceId",
          "type": "bytes4"
        }
      ],
      "name": "supportsInterface",
      "outputs": [
        {
          "internalType": "bool",
          "name": "",
          "type": "bool"
        }
      ],
      "stateMutability": "view",
      "type": "function"
    },
    {
      "inputs": [],
      "name": "symbol",
      "outputs": [
        {
          "internalType": "string",
          "name": "",
          "type": "string"
        }
      ],
      "stateMutability": "view",
      "type": "function"
    },
    {
      "inputs": [
        {
          "internalType": "uint256",
          "name": "tokenId",
          "type": "uint256"
        }
      ],
      "name": "tokenURI",
      "outputs": [
        {
          "internalType": "string",
          "name": "",
          "type": "string"
        }
      ],
      "stateMutability": "view",
      "type": "function"
    },
    {
      "inputs": [
        {
          "internalType": "address",
          "name": "from",
          "type": "address"
        },
        {
          "internalType": "address",
          "name": "to",
          "type": "address"
        },
        {
          "internalType": "uint256",
          "name": "tokenId",
          "type": "uint256"
        }
      ],
      "name": "transferFrom",
      "outputs": [],
      "stateMutability": "nonpayable",
      "type": "function"
    }
  ],
  "bytecode": "0x60806040526040518061028001604052806040518060400160405280600581526020017f427265616400000000000000000000000000000000000000000000000000000081525081526020016040518060400160405280600681526020017f636865657365000000000000000000000000000000000000000000000000000081525081526020016040518060400160405280600581526020017f626173696c00000000000000000000000000000000000000000000000000000081525081526020016040518060400160405280600481526020017f726963650000000000000000000000000000000000000000000000000000000081525081526020016040518060400160405280600981526020017f737061676865747469000000000000000000000000000000000000000000000081525081526020016040518060400160405280600781526020017f6e6f6f646c65730000000000000000000000000000000000000000000000000081525081526020016040518060400160405280600581526020017f6265616e7300000000000000000000000000000000000000000000000000000081525081526020016040518060400160405280600581526020017f70697a7a6100000000000000000000000000000000000000000000000000000081525081526020016040518060400160405280600881526020017f696365637265616d00000000000000000000000000000000000000000000000081525081526020016040518060400160405280600781526020017f636869636b656e0000000000000000000000000000000000000000000000000081525081526020016040518060400160405280600781526020017f6e7567676574730000000000000000000000000000000000000000000000000081525081526020016040518060400160405280600881526020017f706f7461746f657300000000000000000000000000000000000000000000000081525081526020016040518060400160405280600581526020017f707261776e00000000000000000000000000000000000000000000000000000081525081526020016040518060400160405280600681526020017f7475726b6579000000000000000000000000000000000000000000000000000081525081526020016040518060400160405280600681526020017f627572676572000000000000000000000000000000000000000000000000000081525081526020016040518060400160405280600681526020017f686f74646f67000000000000000000000000000000000000000000000000000081525081526020016040518060400160405280600581526020017f737972757000000000000000000000000000000000000000000000000000000081525081526020016040518060400160405280600781526020017f776166666c65730000000000000000000000000000000000000000000000000081525081526020016040518060400160405280600881526020017f70616e63616b657300000000000000000000000000000000000000000000000081525081526020016040518060400160405280600681526020017f63726570657300000000000000000000000000000000000000000000000000008152508152506008906014620004bc92919062000f03565b506040518061028001604052806040518060400160405280600581526020017f64616e636500000000000000000000000000000000000000000000000000000081525081526020016040518060400160405280600481526020017f7377696d0000000000000000000000000000000000000000000000000000000081525081526020016040518060400160405280600481526020017f636f6f6b0000000000000000000000000000000000000000000000000000000081525081526020016040518060400160405280600481526020017f6a756d700000000000000000000000000000000000000000000000000000000081525081526020016040518060400160405280600481526020017f6d616b650000000000000000000000000000000000000000000000000000000081525081526020016040518060400160405280600381526020017f637279000000000000000000000000000000000000000000000000000000000081525081526020016040518060400160405280600581526020017f736d696c6500000000000000000000000000000000000000000000000000000081525081526020016040518060400160405280600581526020017f6c6175676800000000000000000000000000000000000000000000000000000081525081526020016040518060400160405280600481526020017f7369636b0000000000000000000000000000000000000000000000000000000081525081526020016040518060400160405280600981526020017f696d706f7274616e74000000000000000000000000000000000000000000000081525081526020016040518060400160405280600781526020017f776f72726965640000000000000000000000000000000000000000000000000081525081526020016040518060400160405280600481526020017f6c6f76650000000000000000000000000000000000000000000000000000000081525081526020016040518060400160405280600481526020017f627573790000000000000000000000000000000000000000000000000000000081525081526020016040518060400160405280600681526020017f7363686f6f6c000000000000000000000000000000000000000000000000000081525081526020016040518060400160405280600981526020017f656c656374726f6e73000000000000000000000000000000000000000000000081525081526020016040518060400160405280600781526020017f70686f746f6e730000000000000000000000000000000000000000000000000081525081526020016040518060400160405280600581526020017f6d61706c6500000000000000000000000000000000000000000000000000000081525081526020016040518060400160405280600781526020017f63616e646c65730000000000000000000000000000000000000000000000000081525081526020016040518060400160405280600481526020017f63616e650000000000000000000000000000000000000000000000000000000081525081526020016040518060400160405280600481526020017f67726f770000000000000000000000000000000000000000000000000000000081525081525060099060146200097592919062000f03565b506040518061028001604052806040518060400160405280600481526020017f676f61740000000000000000000000000000000000000000000000000000000081525081526020016040518060400160405280600481526020017f6c696f6e0000000000000000000000000000000000000000000000000000000081525081526020016040518060400160405280600581526020017f746967657200000000000000000000000000000000000000000000000000000081525081526020016040518060400160405280600881526020017f746f72746f69736500000000000000000000000000000000000000000000000081525081526020016040518060400160405280600681526020017f737069646572000000000000000000000000000000000000000000000000000081525081526020016040518060400160405280600381526020017f626174000000000000000000000000000000000000000000000000000000000081525081526020016040518060400160405280600381526020017f636174000000000000000000000000000000000000000000000000000000000081525081526020016040518060400160405280600381526020017f646f67000000000000000000000000000000000000000000000000000000000081525081526020016040518060400160405280600981526020017f616c6c696761746f72000000000000000000000000000000000000000000000081525081526020016040518060400160405280600981526020017f63726f636f64696c65000000000000000000000000000000000000000000000081525081526020016040518060400160405280600881526020017f737175697272656c00000000000000000000000000000000000000000000000081525081526020016040518060400160405280600481526020017f736c75670000000000000000000000000000000000000000000000000000000081525081526020016040518060400160405280600581526020017f736e61696c00000000000000000000000000000000000000000000000000000081525081526020016040518060400160405280600581526020017f6b6f616c6100000000000000000000000000000000000000000000000000000081525081526020016040518060400160405280600481526020017f626561720000000000000000000000000000000000000000000000000000000081525081526020016040518060400160405280600581526020017f6269736f6e00000000000000000000000000000000000000000000000000000081525081526020016040518060400160405280600781526020017f676972616666650000000000000000000000000000000000000000000000000081525081526020016040518060400160405280600481526020017f646561720000000000000000000000000000000000000000000000000000000081525081526020016040518060400160405280600881526020017f656c657068616e7400000000000000000000000000000000000000000000000081525081526020016040518060400160405280600581526020017f686f727365000000000000000000000000000000000000000000000000000000815250815250600a90601462000e2e92919062000f03565b5060405180610160016040528061012e8152602001620048f361012e9139600b908162000e5c91906200126a565b5034801562000e6a57600080fd5b506040518060400160405280600981526020017f5445414d4d4154494300000000000000000000000000000000000000000000008152506040518060400160405280600581526020017f4d41544943000000000000000000000000000000000000000000000000000000815250816000908162000ee891906200126a565b50806001908162000efa91906200126a565b50505062001351565b82805482825590600052602060002090810192821562000f50579160200282015b8281111562000f4f57825182908162000f3e91906200126a565b509160200191906001019062000f24565b5b50905062000f5f919062000f63565b5090565b5b8082111562000f87576000818162000f7d919062000f8b565b5060010162000f64565b5090565b50805462000f999062001059565b6000825580601f1062000fad575062000fce565b601f01602090049060005260206000209081019062000fcd919062000fd1565b5b50565b5b8082111562000fec57600081600090555060010162000fd2565b5090565b600081519050919050565b7f4e487b7100000000000000000000000000000000000000000000000000000000600052604160045260246000fd5b7f4e487b7100000000000000000000000000000000000000000000000000000000600052602260045260246000fd5b600060028204905060018216806200107257607f821691505b6020821081036200108857620010876200102a565b5b50919050565b60008190508160005260206000209050919050565b60006020601f8301049050919050565b600082821b905092915050565b600060088302620010f27fffffffffffffffffffffffffffffffffffffffffffffffffffffffffffffffff82620010b3565b620010fe8683620010b3565b95508019841693508086168417925050509392505050565b6000819050919050565b6000819050919050565b60006200114b620011456200113f8462001116565b62001120565b62001116565b9050919050565b6000819050919050565b62001167836200112a565b6200117f620011768262001152565b848454620010c0565b825550505050565b600090565b6200119662001187565b620011a38184846200115c565b505050565b5b81811015620011cb57620011bf6000826200118c565b600181019050620011a9565b5050565b601f8211156200121a57620011e4816200108e565b620011ef84620010a3565b81016020851015620011ff578190505b620012176200120e85620010a3565b830182620011a8565b50505b505050565b600082821c905092915050565b60006200123f600019846008026200121f565b1980831691505092915050565b60006200125a83836200122c565b9150826002028217905092915050565b620012758262000ff0565b67ffffffffffffffff81111562001291576200129062000ffb565b5b6200129d825462001059565b620012aa828285620011cf565b600060209050601f831160018114620012e25760008415620012cd578287015190505b620012d985826200124c565b86555062001349565b601f198416620012f2866200108e565b60005b828110156200131c57848901518255600182019150602085019450602081019050620012f5565b868310156200133c578489015162001338601f8916826200122c565b8355505b6001600288020188555050505b505050505050565b61359280620013616000396000f3fe608060405234801561001057600080fd5b506004361061010b5760003560e01c806370a08231116100a2578063a22cb46511610071578063a22cb465146102f0578063b88d4fde1461030c578063c87b56dd14610328578063e985e9c514610358578063f3d704c8146103885761010b565b806370a08231146102425780638ed8bc93146102725780639023f83d146102a257806395d89b41146102d25761010b565b806323b872dd116100de57806323b872dd146101aa57806329d37499146101c657806342842e0e146101f65780636352211e146102125761010b565b806301ffc9a71461011057806306fdde0314610140578063081812fc1461015e578063095ea7b31461018e575b600080fd5b61012a60048036038101906101259190611f92565b610392565b6040516101379190611fda565b60405180910390f35b610148610474565b6040516101559190612085565b60405180910390f35b610178600480360381019061017391906120dd565b610506565b604051610185919061214b565b60405180910390f35b6101a860048036038101906101a39190612192565b61054c565b005b6101c460048036038101906101bf91906121d2565b610663565b005b6101e060048036038101906101db91906120dd565b6106c3565b6040516101ed9190612085565b60405180910390f35b610210600480360381019061020b91906121d2565b6107bd565b005b61022c600480360381019061022791906120dd565b6107dd565b604051610239919061214b565b60405180910390f35b61025c60048036038101906102579190612225565b610863565b6040516102699190612261565b60405180910390f35b61028c600480360381019061028791906120dd565b61091a565b6040516102999190612085565b60405180910390f35b6102bc60048036038101906102b791906120dd565b610a14565b6040516102c99190612085565b60405180910390f35b6102da610b0e565b6040516102e79190612085565b60405180910390f35b61030a600480360381019061030591906122a8565b610ba0565b005b6103266004803603810190610321919061241d565b610bb6565b005b610342600480360381019061033d91906120dd565b610c18565b60405161034f9190612085565b60405180910390f35b610372600480360381019061036d91906124a0565b610d2a565b60405161037f9190611fda565b60405180910390f35b610390610dbe565b005b60007f80ac58cd000000000000000000000000000000000000000000000000000000007bffffffffffffffffffffffffffffffffffffffffffffffffffffffff1916827bffffffffffffffffffffffffffffffffffffffffffffffffffffffff1916148061045d57507f5b5e139f000000000000000000000000000000000000000000000000000000007bffffffffffffffffffffffffffffffffffffffffffffffffffffffff1916827bffffffffffffffffffffffffffffffffffffffffffffffffffffffff1916145b8061046d575061046c82610ec8565b5b9050919050565b6060600080546104839061250f565b80601f01602080910402602001604051908101604052809291908181526020018280546104af9061250f565b80156104fc5780601f106104d1576101008083540402835291602001916104fc565b820191906000526020600020905b8154815290600101906020018083116104df57829003601f168201915b5050505050905090565b600061051182610f32565b6004600083815260200190815260200160002060009054906101000a900473ffffffffffffffffffffffffffffffffffffffff169050919050565b6000610557826107dd565b90508073ffffffffffffffffffffffffffffffffffffffff168373ffffffffffffffffffffffffffffffffffffffff16036105c7576040517f08c379a00000000000000000000000000000000000000000000000000000000081526004016105be906125b2565b60405180910390fd5b8073ffffffffffffffffffffffffffffffffffffffff166105e6610f7d565b73ffffffffffffffffffffffffffffffffffffffff16148061061557506106148161060f610f7d565b610d2a565b5b610654576040517f08c379a000000000000000000000000000000000000000000000000000000000815260040161064b90612644565b60405180910390fd5b61065e8383610f85565b505050565b61067461066e610f7d565b8261103e565b6106b3576040517f08c379a00000000000000000000000000000000000000000000000000000000081526004016106aa906126d6565b60405180910390fd5b6106be8383836110d3565b505050565b606060006106d0836113cc565b6040516020016106e0919061277e565b6040516020818303038152906040528051906020012060001c9050600a805490508161070c91906127cf565b9050600a818154811061072257610721612800565b5b9060005260206000200180546107379061250f565b80601f01602080910402602001604051908101604052809291908181526020018280546107639061250f565b80156107b05780601f10610785576101008083540402835291602001916107b0565b820191906000526020600020905b81548152906001019060200180831161079357829003601f168201915b5050505050915050919050565b6107d883838360405180602001604052806000815250610bb6565b505050565b6000806107e98361149a565b9050600073ffffffffffffffffffffffffffffffffffffffff168173ffffffffffffffffffffffffffffffffffffffff160361085a576040517f08c379a00000000000000000000000000000000000000000000000000000000081526004016108519061287b565b60405180910390fd5b80915050919050565b60008073ffffffffffffffffffffffffffffffffffffffff168273ffffffffffffffffffffffffffffffffffffffff16036108d3576040517f08c379a00000000000000000000000000000000000000000000000000000000081526004016108ca9061290d565b60405180910390fd5b600360008373ffffffffffffffffffffffffffffffffffffffff1673ffffffffffffffffffffffffffffffffffffffff168152602001908152602001600020549050919050565b60606000610927836113cc565b6040516020016109379190612979565b6040516020818303038152906040528051906020012060001c90506008805490508161096391906127cf565b90506008818154811061097957610978612800565b5b90600052602060002001805461098e9061250f565b80601f01602080910402602001604051908101604052809291908181526020018280546109ba9061250f565b8015610a075780601f106109dc57610100808354040283529160200191610a07565b820191906000526020600020905b8154815290600101906020018083116109ea57829003601f168201915b5050505050915050919050565b60606000610a21836113cc565b604051602001610a3191906129e7565b6040516020818303038152906040528051906020012060001c905060098054905081610a5d91906127cf565b905060098181548110610a7357610a72612800565b5b906000526020600020018054610a889061250f565b80601f0160208091040260200160405190810160405280929190818152602001828054610ab49061250f565b8015610b015780601f10610ad657610100808354040283529160200191610b01565b820191906000526020600020905b815481529060010190602001808311610ae457829003601f168201915b5050505050915050919050565b606060018054610b1d9061250f565b80601f0160208091040260200160405190810160405280929190818152602001828054610b499061250f565b8015610b965780601f10610b6b57610100808354040283529160200191610b96565b820191906000526020600020905b815481529060010190602001808311610b7957829003601f168201915b5050505050905090565b610bb2610bab610f7d565b83836114d7565b5050565b610bc7610bc1610f7d565b8361103e565b610c06576040517f08c379a0000000000000000000000000000000000000000000000000000000008152600401610bfd906126d6565b60405180910390fd5b610c1284848484611643565b50505050565b6060610c2382610f32565b6000600660008481526020019081526020016000208054610c439061250f565b80601f0160208091040260200160405190810160405280929190818152602001828054610c6f9061250f565b8015610cbc5780601f10610c9157610100808354040283529160200191610cbc565b820191906000526020600020905b815481529060010190602001808311610c9f57829003601f168201915b505050505090506000610ccd61169f565b90506000815103610ce2578192505050610d25565b600082511115610d17578082604051602001610cff929190612a09565b60405160208183030381529060405292505050610d25565b610d20846116b6565b925050505b919050565b6000600560008473ffffffffffffffffffffffffffffffffffffffff1673ffffffffffffffffffffffffffffffffffffffff16815260200190815260200160002060008373ffffffffffffffffffffffffffffffffffffffff1673ffffffffffffffffffffffffffffffffffffffff16815260200190815260200160002060009054906101000a900460ff16905092915050565b6000610dca600761171e565b90506000610dd78261091a565b90506000610de483610a14565b90506000610df1846106c3565b90506000838383604051602001610e0a93929190612a2d565b60405160208183030381529060405290506000600b858585604051602001610e359493929190612b42565b60405160208183030381529060405290506000610e7a83610e558461172c565b604051602001610e66929190612cbb565b60405160208183030381529060405261172c565b9050600081604051602001610e8f9190612d4c565b6040516020818303038152906040529050610eaa33896118c3565b610eb488826118e1565b610ebe600761194e565b5050505050505050565b60007f01ffc9a7000000000000000000000000000000000000000000000000000000007bffffffffffffffffffffffffffffffffffffffffffffffffffffffff1916827bffffffffffffffffffffffffffffffffffffffffffffffffffffffff1916149050919050565b610f3b81611964565b610f7a576040517f08c379a0000000000000000000000000000000000000000000000000000000008152600401610f719061287b565b60405180910390fd5b50565b600033905090565b816004600083815260200190815260200160002060006101000a81548173ffffffffffffffffffffffffffffffffffffffff021916908373ffffffffffffffffffffffffffffffffffffffff160217905550808273ffffffffffffffffffffffffffffffffffffffff16610ff8836107dd565b73ffffffffffffffffffffffffffffffffffffffff167f8c5be1e5ebec7d5bd14f71427d1e84f3dd0314c0f7b2291e5b200ac8c7c3b92560405160405180910390a45050565b60008061104a836107dd565b90508073ffffffffffffffffffffffffffffffffffffffff168473ffffffffffffffffffffffffffffffffffffffff16148061108c575061108b8185610d2a565b5b806110ca57508373ffffffffffffffffffffffffffffffffffffffff166110b284610506565b73ffffffffffffffffffffffffffffffffffffffff16145b91505092915050565b8273ffffffffffffffffffffffffffffffffffffffff166110f3826107dd565b73ffffffffffffffffffffffffffffffffffffffff1614611149576040517f08c379a000000000000000000000000000000000000000000000000000000000815260040161114090612de0565b60405180910390fd5b600073ffffffffffffffffffffffffffffffffffffffff168273ffffffffffffffffffffffffffffffffffffffff16036111b8576040517f08c379a00000000000000000000000000000000000000000000000000000000081526004016111af90612e72565b60405180910390fd5b6111c583838360016119a5565b8273ffffffffffffffffffffffffffffffffffffffff166111e5826107dd565b73ffffffffffffffffffffffffffffffffffffffff161461123b576040517f08c379a000000000000000000000000000000000000000000000000000000000815260040161123290612de0565b60405180910390fd5b6004600082815260200190815260200160002060006101000a81549073ffffffffffffffffffffffffffffffffffffffff02191690556001600360008573ffffffffffffffffffffffffffffffffffffffff1673ffffffffffffffffffffffffffffffffffffffff168152602001908152602001600020600082825403925050819055506001600360008473ffffffffffffffffffffffffffffffffffffffff1673ffffffffffffffffffffffffffffffffffffffff16815260200190815260200160002060008282540192505081905550816002600083815260200190815260200160002060006101000a81548173ffffffffffffffffffffffffffffffffffffffff021916908373ffffffffffffffffffffffffffffffffffffffff160217905550808273ffffffffffffffffffffffffffffffffffffffff168473ffffffffffffffffffffffffffffffffffffffff167fddf252ad1be2c89b69c2b068fc378daa952ba7f163c4a11628f55a4df523b3ef60405160405180910390a46113c783838360016119ab565b505050565b6060600060016113db846119b1565b01905060008167ffffffffffffffff8111156113fa576113f96122f2565b5b6040519080825280601f01601f19166020018201604052801561142c5781602001600182028036833780820191505090505b509050600082602001820190505b60011561148f578080600190039150507f3031323334353637383961626364656600000000000000000000000000000000600a86061a8153600a8581611483576114826127a0565b5b0494506000850361143a575b819350505050919050565b60006002600083815260200190815260200160002060009054906101000a900473ffffffffffffffffffffffffffffffffffffffff169050919050565b8173ffffffffffffffffffffffffffffffffffffffff168373ffffffffffffffffffffffffffffffffffffffff1603611545576040517f08c379a000000000000000000000000000000000000000000000000000000000815260040161153c90612ede565b60405180910390fd5b80600560008573ffffffffffffffffffffffffffffffffffffffff1673ffffffffffffffffffffffffffffffffffffffff16815260200190815260200160002060008473ffffffffffffffffffffffffffffffffffffffff1673ffffffffffffffffffffffffffffffffffffffff16815260200190815260200160002060006101000a81548160ff0219169083151502179055508173ffffffffffffffffffffffffffffffffffffffff168373ffffffffffffffffffffffffffffffffffffffff167f17307eab39ab6107e8899845ad3d59bd9653f200f220920489ca2b5937696c31836040516116369190611fda565b60405180910390a3505050565b61164e8484846110d3565b61165a84848484611b04565b611699576040517f08c379a000000000000000000000000000000000000000000000000000000000815260040161169090612f70565b60405180910390fd5b50505050565b606060405180602001604052806000815250905090565b60606116c182610f32565b60006116cb61169f565b905060008151116116eb5760405180602001604052806000815250611716565b806116f5846113cc565b604051602001611706929190612a09565b6040516020818303038152906040525b915050919050565b600081600001549050919050565b60606000825190506000810361175457604051806020016040528060008152509150506118be565b600060036002836117659190612fbf565b61176f9190612ff3565b600461177b9190613024565b9050600060208261178c9190612fbf565b67ffffffffffffffff8111156117a5576117a46122f2565b5b6040519080825280601f01601f1916602001820160405280156117d75781602001600182028036833780820191505090505b509050600060405180606001604052806040815260200161351d604091399050600181016020830160005b8681101561187b5760038101905062ffffff818a015116603f8160121c168401518060081b905060ff603f83600c1c1686015116810190508060081b905060ff603f8360061c1686015116810190508060081b905060ff603f831686015116810190508060e01b90508084526004840193505050611802565b50600386066001811461189557600281146118a5576118b0565b613d3d60f01b60028303526118b0565b603d60f81b60018303525b508484525050819450505050505b919050565b6118dd828260405180602001604052806000815250611c8b565b5050565b6118ea82611964565b611929576040517f08c379a0000000000000000000000000000000000000000000000000000000008152600401611920906130d8565b60405180910390fd5b80600660008481526020019081526020016000209081611949919061328f565b505050565b6001816000016000828254019250508190555050565b60008073ffffffffffffffffffffffffffffffffffffffff166119868361149a565b73ffffffffffffffffffffffffffffffffffffffff1614159050919050565b50505050565b50505050565b600080600090507a184f03e93ff9f4daa797ed6e38ed64bf6a1f0100000000000000008310611a0f577a184f03e93ff9f4daa797ed6e38ed64bf6a1f0100000000000000008381611a0557611a046127a0565b5b0492506040810190505b6d04ee2d6d415b85acef81000000008310611a4c576d04ee2d6d415b85acef81000000008381611a4257611a416127a0565b5b0492506020810190505b662386f26fc100008310611a7b57662386f26fc100008381611a7157611a706127a0565b5b0492506010810190505b6305f5e1008310611aa4576305f5e1008381611a9a57611a996127a0565b5b0492506008810190505b6127108310611ac9576127108381611abf57611abe6127a0565b5b0492506004810190505b60648310611aec5760648381611ae257611ae16127a0565b5b0492506002810190505b600a8310611afb576001810190505b80915050919050565b6000611b258473ffffffffffffffffffffffffffffffffffffffff16611ce6565b15611c7e578373ffffffffffffffffffffffffffffffffffffffff1663150b7a02611b4e610f7d565b8786866040518563ffffffff1660e01b8152600401611b7094939291906133b6565b6020604051808303816000875af1925050508015611bac57506040513d601f19601f82011682018060405250810190611ba99190613417565b60015b611c2e573d8060008114611bdc576040519150601f19603f3d011682016040523d82523d6000602084013e611be1565b606091505b506000815103611c26576040517f08c379a0000000000000000000000000000000000000000000000000000000008152600401611c1d90612f70565b60405180910390fd5b805181602001fd5b63150b7a0260e01b7bffffffffffffffffffffffffffffffffffffffffffffffffffffffff1916817bffffffffffffffffffffffffffffffffffffffffffffffffffffffff191614915050611c83565b600190505b949350505050565b611c958383611d09565b611ca26000848484611b04565b611ce1576040517f08c379a0000000000000000000000000000000000000000000000000000000008152600401611cd890612f70565b60405180910390fd5b505050565b6000808273ffffffffffffffffffffffffffffffffffffffff163b119050919050565b600073ffffffffffffffffffffffffffffffffffffffff168273ffffffffffffffffffffffffffffffffffffffff1603611d78576040517f08c379a0000000000000000000000000000000000000000000000000000000008152600401611d6f90613490565b60405180910390fd5b611d8181611964565b15611dc1576040517f08c379a0000000000000000000000000000000000000000000000000000000008152600401611db8906134fc565b60405180910390fd5b611dcf6000838360016119a5565b611dd881611964565b15611e18576040517f08c379a0000000000000000000000000000000000000000000000000000000008152600401611e0f906134fc565b60405180910390fd5b6001600360008473ffffffffffffffffffffffffffffffffffffffff1673ffffffffffffffffffffffffffffffffffffffff16815260200190815260200160002060008282540192505081905550816002600083815260200190815260200160002060006101000a81548173ffffffffffffffffffffffffffffffffffffffff021916908373ffffffffffffffffffffffffffffffffffffffff160217905550808273ffffffffffffffffffffffffffffffffffffffff16600073ffffffffffffffffffffffffffffffffffffffff167fddf252ad1be2c89b69c2b068fc378daa952ba7f163c4a11628f55a4df523b3ef60405160405180910390a4611f226000838360016119ab565b5050565b6000604051905090565b600080fd5b600080fd5b60007fffffffff0000000000000000000000000000000000000000000000000000000082169050919050565b611f6f81611f3a565b8114611f7a57600080fd5b50565b600081359050611f8c81611f66565b92915050565b600060208284031215611fa857611fa7611f30565b5b6000611fb684828501611f7d565b91505092915050565b60008115159050919050565b611fd481611fbf565b82525050565b6000602082019050611fef6000830184611fcb565b92915050565b600081519050919050565b600082825260208201905092915050565b60005b8381101561202f578082015181840152602081019050612014565b60008484015250505050565b6000601f19601f8301169050919050565b600061205782611ff5565b6120618185612000565b9350612071818560208601612011565b61207a8161203b565b840191505092915050565b6000602082019050818103600083015261209f818461204c565b905092915050565b6000819050919050565b6120ba816120a7565b81146120c557600080fd5b50565b6000813590506120d7816120b1565b92915050565b6000602082840312156120f3576120f2611f30565b5b6000612101848285016120c8565b91505092915050565b600073ffffffffffffffffffffffffffffffffffffffff82169050919050565b60006121358261210a565b9050919050565b6121458161212a565b82525050565b6000602082019050612160600083018461213c565b92915050565b61216f8161212a565b811461217a57600080fd5b50565b60008135905061218c81612166565b92915050565b600080604083850312156121a9576121a8611f30565b5b60006121b78582860161217d565b92505060206121c8858286016120c8565b9150509250929050565b6000806000606084860312156121eb576121ea611f30565b5b60006121f98682870161217d565b935050602061220a8682870161217d565b925050604061221b868287016120c8565b9150509250925092565b60006020828403121561223b5761223a611f30565b5b60006122498482850161217d565b91505092915050565b61225b816120a7565b82525050565b60006020820190506122766000830184612252565b92915050565b61228581611fbf565b811461229057600080fd5b50565b6000813590506122a28161227c565b92915050565b600080604083850312156122bf576122be611f30565b5b60006122cd8582860161217d565b92505060206122de85828601612293565b9150509250929050565b600080fd5b600080fd5b7f4e487b7100000000000000000000000000000000000000000000000000000000600052604160045260246000fd5b61232a8261203b565b810181811067ffffffffffffffff82111715612349576123486122f2565b5b80604052505050565b600061235c611f26565b90506123688282612321565b919050565b600067ffffffffffffffff821115612388576123876122f2565b5b6123918261203b565b9050602081019050919050565b82818337600083830152505050565b60006123c06123bb8461236d565b612352565b9050828152602081018484840111156123dc576123db6122ed565b5b6123e784828561239e565b509392505050565b600082601f830112612404576124036122e8565b5b81356124148482602086016123ad565b91505092915050565b6000806000806080858703121561243757612436611f30565b5b60006124458782880161217d565b94505060206124568782880161217d565b9350506040612467878288016120c8565b925050606085013567ffffffffffffffff81111561248857612487611f35565b5b612494878288016123ef565b91505092959194509250565b600080604083850312156124b7576124b6611f30565b5b60006124c58582860161217d565b92505060206124d68582860161217d565b9150509250929050565b7f4e487b7100000000000000000000000000000000000000000000000000000000600052602260045260246000fd5b6000600282049050600182168061252757607f821691505b60208210810361253a576125396124e0565b5b50919050565b7f4552433732313a20617070726f76616c20746f2063757272656e74206f776e6560008201527f7200000000000000000000000000000000000000000000000000000000000000602082015250565b600061259c602183612000565b91506125a782612540565b604082019050919050565b600060208201905081810360008301526125cb8161258f565b9050919050565b7f4552433732313a20617070726f76652063616c6c6572206973206e6f7420746f60008201527f6b656e206f776e6572206f7220617070726f76656420666f7220616c6c000000602082015250565b600061262e603d83612000565b9150612639826125d2565b604082019050919050565b6000602082019050818103600083015261265d81612621565b9050919050565b7f4552433732313a2063616c6c6572206973206e6f7420746f6b656e206f776e6560008201527f72206f7220617070726f76656400000000000000000000000000000000000000602082015250565b60006126c0602d83612000565b91506126cb82612664565b604082019050919050565b600060208201905081810360008301526126ef816126b3565b9050919050565b600081905092915050565b7f5448495244776f72647300000000000000000000000000000000000000000000600082015250565b6000612737600a836126f6565b915061274282612701565b600a82019050919050565b600061275882611ff5565b61276281856126f6565b9350612772818560208601612011565b80840191505092915050565b60006127898261272a565b9150612795828461274d565b915081905092915050565b7f4e487b7100000000000000000000000000000000000000000000000000000000600052601260045260246000fd5b60006127da826120a7565b91506127e5836120a7565b9250826127f5576127f46127a0565b5b828206905092915050565b7f4e487b7100000000000000000000000000000000000000000000000000000000600052603260045260246000fd5b7f4552433732313a20696e76616c696420746f6b656e2049440000000000000000600082015250565b6000612865601883612000565b91506128708261282f565b602082019050919050565b6000602082019050818103600083015261289481612858565b9050919050565b7f4552433732313a2061646472657373207a65726f206973206e6f74206120766160008201527f6c6964206f776e65720000000000000000000000000000000000000000000000602082015250565b60006128f7602983612000565b91506129028261289b565b604082019050919050565b60006020820190508181036000830152612926816128ea565b9050919050565b7f4649525354776f72647300000000000000000000000000000000000000000000600082015250565b6000612963600a836126f6565b915061296e8261292d565b600a82019050919050565b600061298482612956565b9150612990828461274d565b915081905092915050565b7f5345434f4e44776f726473000000000000000000000000000000000000000000600082015250565b60006129d1600b836126f6565b91506129dc8261299b565b600b82019050919050565b60006129f2826129c4565b91506129fe828461274d565b915081905092915050565b6000612a15828561274d565b9150612a21828461274d565b91508190509392505050565b6000612a39828661274d565b9150612a45828561274d565b9150612a51828461274d565b9150819050949350505050565b60008190508160005260206000209050919050565b60008154612a808161250f565b612a8a81866126f6565b94506001821660008114612aa55760018114612aba57612aed565b60ff1983168652811515820286019350612aed565b612ac385612a5e565b60005b83811015612ae557815481890152600182019150602081019050612ac6565b838801955050505b50505092915050565b7f3c2f746578743e3c2f7376673e00000000000000000000000000000000000000600082015250565b6000612b2c600d836126f6565b9150612b3782612af6565b600d82019050919050565b6000612b4e8287612a73565b9150612b5a828661274d565b9150612b66828561274d565b9150612b72828461274d565b9150612b7d82612b1f565b915081905095945050505050565b7f7b226e616d65223a202200000000000000000000000000000000000000000000600082015250565b6000612bc1600a836126f6565b9150612bcc82612b8b565b600a82019050919050565b7f222c20226465736372697074696f6e223a20225465616d204d61746963204e4660008201527f54206c6f747465727920636f6c6c656374696f6e222c2022696d61676522203a60208201527f2022646174613a696d6167652f7376672b786d6c3b6261736536342c00000000604082015250565b6000612c59605c836126f6565b9150612c6482612bd7565b605c82019050919050565b7f227d000000000000000000000000000000000000000000000000000000000000600082015250565b6000612ca56002836126f6565b9150612cb082612c6f565b600282019050919050565b6000612cc682612bb4565b9150612cd2828561274d565b9150612cdd82612c4c565b9150612ce9828461274d565b9150612cf482612c98565b91508190509392505050565b7f646174613a6170706c69636174696f6e2f6a736f6e3b6261736536342c000000600082015250565b6000612d36601d836126f6565b9150612d4182612d00565b601d82019050919050565b6000612d5782612d29565b9150612d63828461274d565b915081905092915050565b7f4552433732313a207472616e736665722066726f6d20696e636f72726563742060008201527f6f776e6572000000000000000000000000000000000000000000000000000000602082015250565b6000612dca602583612000565b9150612dd582612d6e565b604082019050919050565b60006020820190508181036000830152612df981612dbd565b9050919050565b7f4552433732313a207472616e7366657220746f20746865207a65726f2061646460008201527f7265737300000000000000000000000000000000000000000000000000000000602082015250565b6000612e5c602483612000565b9150612e6782612e00565b604082019050919050565b60006020820190508181036000830152612e8b81612e4f565b9050919050565b7f4552433732313a20617070726f766520746f2063616c6c657200000000000000600082015250565b6000612ec8601983612000565b9150612ed382612e92565b602082019050919050565b60006020820190508181036000830152612ef781612ebb565b9050919050565b7f4552433732313a207472616e7366657220746f206e6f6e20455243373231526560008201527f63656976657220696d706c656d656e7465720000000000000000000000000000602082015250565b6000612f5a603283612000565b9150612f6582612efe565b604082019050919050565b60006020820190508181036000830152612f8981612f4d565b9050919050565b7f4e487b7100000000000000000000000000000000000000000000000000000000600052601160045260246000fd5b6000612fca826120a7565b9150612fd5836120a7565b9250828201905080821115612fed57612fec612f90565b5b92915050565b6000612ffe826120a7565b9150613009836120a7565b925082613019576130186127a0565b5b828204905092915050565b600061302f826120a7565b915061303a836120a7565b9250828202613048816120a7565b9150828204841483151761305f5761305e612f90565b5b5092915050565b7f45524337323155524953746f726167653a2055524920736574206f66206e6f6e60008201527f6578697374656e7420746f6b656e000000000000000000000000000000000000602082015250565b60006130c2602e83612000565b91506130cd82613066565b604082019050919050565b600060208201905081810360008301526130f1816130b5565b9050919050565b60006020601f8301049050919050565b600082821b905092915050565b6000600883026131457fffffffffffffffffffffffffffffffffffffffffffffffffffffffffffffffff82613108565b61314f8683613108565b95508019841693508086168417925050509392505050565b6000819050919050565b600061318c613187613182846120a7565b613167565b6120a7565b9050919050565b6000819050919050565b6131a683613171565b6131ba6131b282613193565b848454613115565b825550505050565b600090565b6131cf6131c2565b6131da81848461319d565b505050565b5b818110156131fe576131f36000826131c7565b6001810190506131e0565b5050565b601f8211156132435761321481612a5e565b61321d846130f8565b8101602085101561322c578190505b613240613238856130f8565b8301826131df565b50505b505050565b600082821c905092915050565b600061326660001984600802613248565b1980831691505092915050565b600061327f8383613255565b9150826002028217905092915050565b61329882611ff5565b67ffffffffffffffff8111156132b1576132b06122f2565b5b6132bb825461250f565b6132c6828285613202565b600060209050601f8311600181146132f957600084156132e7578287015190505b6132f18582613273565b865550613359565b601f19841661330786612a5e565b60005b8281101561332f5784890151825560018201915060208501945060208101905061330a565b8683101561334c5784890151613348601f891682613255565b8355505b6001600288020188555050505b505050505050565b600081519050919050565b600082825260208201905092915050565b600061338882613361565b613392818561336c565b93506133a2818560208601612011565b6133ab8161203b565b840191505092915050565b60006080820190506133cb600083018761213c565b6133d8602083018661213c565b6133e56040830185612252565b81810360608301526133f7818461337d565b905095945050505050565b60008151905061341181611f66565b92915050565b60006020828403121561342d5761342c611f30565b5b600061343b84828501613402565b91505092915050565b7f4552433732313a206d696e7420746f20746865207a65726f2061646472657373600082015250565b600061347a602083612000565b915061348582613444565b602082019050919050565b600060208201905081810360008301526134a98161346d565b9050919050565b7f4552433732313a20746f6b656e20616c7265616479206d696e74656400000000600082015250565b60006134e6601c83612000565b91506134f1826134b0565b602082019050919050565b60006020820190508181036000830152613515816134d9565b905091905056fe4142434445464748494a4b4c4d4e4f505152535455565758595a6162636465666768696a6b6c6d6e6f707172737475767778797a303132333435363738392b2fa2646970667358221220deeaccb788128ee42a83f2f4221fe082ad57feac63aeabd54ab84a0f3bfd919f64736f6c634300081100333c73766720786d6c6e733d27687474703a2f2f7777772e77332e6f72672f323030302f73766727207072657365727665417370656374526174696f3d27784d696e594d696e206d656574272076696577426f783d273020302033353020333530273e3c7374796c653e2e62617365207b2066696c6c3a2070696e6b3b20666f6e742d66616d696c793a2073657269663b20666f6e742d73697a653a20323470783b207d3c2f7374796c653e3c726563742077696474683d273130302527206865696768743d2731303025272066696c6c3d27626c61636b27202f3e3c7465787420783d273530252720793d273530252720636c6173733d27626173652720646f6d696e616e742d626173656c696e653d276d6964646c652720746578742d616e63686f723d276d6964646c65273e",
  "linkReferences": {},
  "deployedLinkReferences": {}
}