{
  "_format": "hh-sol-artifact-1",
  "contractName": "MATICLOTTO",
  "sourceName": "contracts/NFTLottery.sol",
  "abi": [
    {
      "inputs": [],
      "stateMutability": "nonpayable",
      "type": "constructor"
    },
    {
      "inputs": [],
      "name": "completePlayers",
      "type": "error"
    },
    {
      "anonymous": false,
      "inputs": [
        {
          "indexed": true,
          "internalType": "address",
          "name": "owner",
          "type": "address"
        },
        {
          "indexed": true,
          "internalType": "address",
          "name": "approved",
          "type": "address"
        },
        {
          "indexed": true,
          "internalType": "uint256",
          "name": "tokenId",
          "type": "uint256"
        }
      ],
      "name": "Approval",
      "type": "event"
    },
    {
      "anonymous": false,
      "inputs": [
        {
          "indexed": true,
          "internalType": "address",
          "name": "owner",
          "type": "address"
        },
        {
          "indexed": true,
          "internalType": "address",
          "name": "operator",
          "type": "address"
        },
        {
          "indexed": false,
          "internalType": "bool",
          "name": "approved",
          "type": "bool"
        }
      ],
      "name": "ApprovalForAll",
      "type": "event"
    },
    {
      "anonymous": false,
      "inputs": [
        {
          "indexed": true,
          "internalType": "address",
          "name": "from",
          "type": "address"
        },
        {
          "indexed": true,
          "internalType": "address",
          "name": "to",
          "type": "address"
        },
        {
          "indexed": true,
          "internalType": "uint256",
          "name": "tokenId",
          "type": "uint256"
        }
      ],
      "name": "Transfer",
      "type": "event"
    },
    {
      "anonymous": false,
      "inputs": [
        {
          "indexed": true,
          "internalType": "address",
          "name": "",
          "type": "address"
        }
      ],
      "name": "newParticipant",
      "type": "event"
    },
    {
      "anonymous": false,
      "inputs": [
        {
          "indexed": true,
          "internalType": "uint256",
          "name": "round",
          "type": "uint256"
        }
      ],
      "name": "newRound",
      "type": "event"
    },
    {
      "anonymous": false,
      "inputs": [
        {
          "indexed": true,
          "internalType": "address",
          "name": "",
          "type": "address"
        }
      ],
      "name": "winnerSelected",
      "type": "event"
    },
    {
      "anonymous": false,
      "inputs": [
        {
          "indexed": true,
          "internalType": "uint256",
          "name": "",
          "type": "uint256"
        }
      ],
      "name": "winningWithdrawn",
      "type": "event"
    },
    {
      "inputs": [
        {
          "internalType": "address",
          "name": "",
          "type": "address"
        }
      ],
      "name": "addresstoPlayer",
      "outputs": [
        {
          "internalType": "uint256",
          "name": "firstNum",
          "type": "uint256"
        },
        {
          "internalType": "uint256",
          "name": "secondNum",
          "type": "uint256"
        },
        {
          "internalType": "uint256",
          "name": "thirdNum",
          "type": "uint256"
        },
        {
          "internalType": "address payable",
          "name": "pla_yer",
          "type": "address"
        }
      ],
      "stateMutability": "view",
      "type": "function"
    },
    {
      "inputs": [],
      "name": "admin",
      "outputs": [
        {
          "internalType": "address",
          "name": "",
          "type": "address"
        }
      ],
      "stateMutability": "view",
      "type": "function"
    },
    {
      "inputs": [
        {
          "internalType": "address",
          "name": "to",
          "type": "address"
        },
        {
          "internalType": "uint256",
          "name": "tokenId",
          "type": "uint256"
        }
      ],
      "name": "approve",
      "outputs": [],
      "stateMutability": "nonpayable",
      "type": "function"
    },
    {
      "inputs": [
        {
          "internalType": "address",
          "name": "owner",
          "type": "address"
        }
      ],
      "name": "balanceOf",
      "outputs": [
        {
          "internalType": "uint256",
          "name": "",
          "type": "uint256"
        }
      ],
      "stateMutability": "view",
      "type": "function"
    },
    {
      "inputs": [],
      "name": "claimPrize",
      "outputs": [],
      "stateMutability": "nonpayable",
      "type": "function"
    },
    {
      "inputs": [
        {
          "internalType": "uint256",
          "name": "_round",
          "type": "uint256"
        }
      ],
      "name": "createRound",
      "outputs": [],
      "stateMutability": "nonpayable",
      "type": "function"
    },
    {
      "inputs": [
        {
          "internalType": "uint256",
          "name": "tokenId",
          "type": "uint256"
        }
      ],
      "name": "getApproved",
      "outputs": [
        {
          "internalType": "address",
          "name": "",
          "type": "address"
        }
      ],
      "stateMutability": "view",
      "type": "function"
    },
    {
      "inputs": [],
      "name": "getNumberOfPlayers",
      "outputs": [
        {
          "internalType": "uint256",
          "name": "",
          "type": "uint256"
        }
      ],
      "stateMutability": "view",
      "type": "function"
    },
    {
      "inputs": [
        {
          "internalType": "address",
          "name": "owner",
          "type": "address"
        },
        {
          "internalType": "address",
          "name": "operator",
          "type": "address"
        }
      ],
      "name": "isApprovedForAll",
      "outputs": [
        {
          "internalType": "bool",
          "name": "",
          "type": "bool"
        }
      ],
      "stateMutability": "view",
      "type": "function"
    },
    {
      "inputs": [
        {
          "internalType": "uint256",
          "name": "tokenId",
          "type": "uint256"
        }
      ],
      "name": "makeFirstWord",
      "outputs": [
        {
          "internalType": "string",
          "name": "",
          "type": "string"
        }
      ],
      "stateMutability": "view",
      "type": "function"
    },
    {
      "inputs": [
        {
          "internalType": "uint256",
          "name": "tokenId",
          "type": "uint256"
        }
      ],
      "name": "makeSecondWord",
      "outputs": [
        {
          "internalType": "string",
          "name": "",
          "type": "string"
        }
      ],
      "stateMutability": "view",
      "type": "function"
    },
    {
      "inputs": [
        {
          "internalType": "uint256",
          "name": "tokenId",
          "type": "uint256"
        }
      ],
      "name": "makeThirdWord",
      "outputs": [
        {
          "internalType": "string",
          "name": "",
          "type": "string"
        }
      ],
      "stateMutability": "view",
      "type": "function"
    },
    {
      "inputs": [],
      "name": "mintAnNFT",
      "outputs": [],
      "stateMutability": "nonpayable",
      "type": "function"
    },
    {
      "inputs": [],
      "name": "name",
      "outputs": [
        {
          "internalType": "string",
          "name": "",
          "type": "string"
        }
      ],
      "stateMutability": "view",
      "type": "function"
    },
    {
      "inputs": [
        {
          "internalType": "uint256",
          "name": "tokenId",
          "type": "uint256"
        }
      ],
      "name": "ownerOf",
      "outputs": [
        {
          "internalType": "address",
          "name": "",
          "type": "address"
        }
      ],
      "stateMutability": "view",
      "type": "function"
    },
    {
      "inputs": [
        {
          "internalType": "uint256",
          "name": "_firstNum",
          "type": "uint256"
        },
        {
          "internalType": "uint256",
          "name": "_secondNum",
          "type": "uint256"
        },
        {
          "internalType": "uint256",
          "name": "_thirdNum",
          "type": "uint256"
        }
      ],
      "name": "participate",
      "outputs": [],
      "stateMutability": "payable",
      "type": "function"
    },
    {
      "inputs": [],
      "name": "round",
      "outputs": [
        {
          "internalType": "uint256",
          "name": "",
          "type": "uint256"
        }
      ],
      "stateMutability": "view",
      "type": "function"
    },
    {
      "inputs": [
        {
          "internalType": "address",
          "name": "from",
          "type": "address"
        },
        {
          "internalType": "address",
          "name": "to",
          "type": "address"
        },
        {
          "internalType": "uint256",
          "name": "tokenId",
          "type": "uint256"
        }
      ],
      "name": "safeTransferFrom",
      "outputs": [],
      "stateMutability": "nonpayable",
      "type": "function"
    },
    {
      "inputs": [
        {
          "internalType": "address",
          "name": "from",
          "type": "address"
        },
        {
          "internalType": "address",
          "name": "to",
          "type": "address"
        },
        {
          "internalType": "uint256",
          "name": "tokenId",
          "type": "uint256"
        },
        {
          "internalType": "bytes",
          "name": "data",
          "type": "bytes"
        }
      ],
      "name": "safeTransferFrom",
      "outputs": [],
      "stateMutability": "nonpayable",
      "type": "function"
    },
    {
      "inputs": [],
      "name": "selectWinner",
      "outputs": [
        {
          "components": [
            {
              "internalType": "uint256",
              "name": "firstNum",
              "type": "uint256"
            },
            {
              "internalType": "uint256",
              "name": "secondNum",
              "type": "uint256"
            },
            {
              "internalType": "uint256",
              "name": "thirdNum",
              "type": "uint256"
            },
            {
              "internalType": "address payable",
              "name": "pla_yer",
              "type": "address"
            }
          ],
          "internalType": "struct MATICLOTTO.player_",
          "name": "",
          "type": "tuple"
        }
      ],
      "stateMutability": "nonpayable",
      "type": "function"
    },
    {
      "inputs": [
        {
          "internalType": "address",
          "name": "operator",
          "type": "address"
        },
        {
          "internalType": "bool",
          "name": "approved",
          "type": "bool"
        }
      ],
      "name": "setApprovalForAll",
      "outputs": [],
      "stateMutability": "nonpayable",
      "type": "function"
    },
    {
      "inputs": [],
      "name": "startTime",
      "outputs": [
        {
          "internalType": "uint256",
          "name": "",
          "type": "uint256"
        }
      ],
      "stateMutability": "view",
      "type": "function"
    },
    {
      "inputs": [
        {
          "internalType": "bytes4",
          "name": "interfaceId",
          "type": "bytes4"
        }
      ],
      "name": "supportsInterface",
      "outputs": [
        {
          "internalType": "bool",
          "name": "",
          "type": "bool"
        }
      ],
      "stateMutability": "view",
      "type": "function"
    },
    {
      "inputs": [],
      "name": "symbol",
      "outputs": [
        {
          "internalType": "string",
          "name": "",
          "type": "string"
        }
      ],
      "stateMutability": "view",
      "type": "function"
    },
    {
      "inputs": [
        {
          "internalType": "uint256",
          "name": "tokenId",
          "type": "uint256"
        }
      ],
      "name": "tokenURI",
      "outputs": [
        {
          "internalType": "string",
          "name": "",
          "type": "string"
        }
      ],
      "stateMutability": "view",
      "type": "function"
    },
    {
      "inputs": [],
      "name": "totalRaised",
      "outputs": [
        {
          "internalType": "uint256",
          "name": "",
          "type": "uint256"
        }
      ],
      "stateMutability": "view",
      "type": "function"
    },
    {
      "inputs": [
        {
          "internalType": "address",
          "name": "from",
          "type": "address"
        },
        {
          "internalType": "address",
          "name": "to",
          "type": "address"
        },
        {
          "internalType": "uint256",
          "name": "tokenId",
          "type": "uint256"
        }
      ],
      "name": "transferFrom",
      "outputs": [],
      "stateMutability": "nonpayable",
      "type": "function"
    },
    {
      "inputs": [],
      "name": "winner",
      "outputs": [
        {
          "internalType": "uint256",
          "name": "firstNum",
          "type": "uint256"
        },
        {
          "internalType": "uint256",
          "name": "secondNum",
          "type": "uint256"
        },
        {
          "internalType": "uint256",
          "name": "thirdNum",
          "type": "uint256"
        },
        {
          "internalType": "address payable",
          "name": "pla_yer",
          "type": "address"
        }
      ],
      "stateMutability": "view",
      "type": "function"
    },
    {
      "inputs": [],
      "name": "winningAddress",
      "outputs": [
        {
          "internalType": "address payable",
          "name": "",
          "type": "address"
        }
      ],
      "stateMutability": "view",
      "type": "function"
    },
    {
      "inputs": [],
      "name": "winningTime",
      "outputs": [
        {
          "internalType": "uint256",
          "name": "",
          "type": "uint256"
        }
      ],
      "stateMutability": "view",
      "type": "function"
    }
  ],
  "bytecode": "0x60806040526040518061028001604052806040518060400160405280600581526020017f427265616400000000000000000000000000000000000000000000000000000081525081526020016040518060400160405280600681526020017f636865657365000000000000000000000000000000000000000000000000000081525081526020016040518060400160405280600581526020017f626173696c00000000000000000000000000000000000000000000000000000081525081526020016040518060400160405280600481526020017f726963650000000000000000000000000000000000000000000000000000000081525081526020016040518060400160405280600981526020017f737061676865747469000000000000000000000000000000000000000000000081525081526020016040518060400160405280600781526020017f6e6f6f646c65730000000000000000000000000000000000000000000000000081525081526020016040518060400160405280600581526020017f6265616e7300000000000000000000000000000000000000000000000000000081525081526020016040518060400160405280600581526020017f70697a7a6100000000000000000000000000000000000000000000000000000081525081526020016040518060400160405280600881526020017f696365637265616d00000000000000000000000000000000000000000000000081525081526020016040518060400160405280600781526020017f636869636b656e0000000000000000000000000000000000000000000000000081525081526020016040518060400160405280600781526020017f6e7567676574730000000000000000000000000000000000000000000000000081525081526020016040518060400160405280600881526020017f706f7461746f657300000000000000000000000000000000000000000000000081525081526020016040518060400160405280600581526020017f707261776e00000000000000000000000000000000000000000000000000000081525081526020016040518060400160405280600681526020017f7475726b6579000000000000000000000000000000000000000000000000000081525081526020016040518060400160405280600681526020017f627572676572000000000000000000000000000000000000000000000000000081525081526020016040518060400160405280600681526020017f686f74646f67000000000000000000000000000000000000000000000000000081525081526020016040518060400160405280600581526020017f737972757000000000000000000000000000000000000000000000000000000081525081526020016040518060400160405280600781526020017f776166666c65730000000000000000000000000000000000000000000000000081525081526020016040518060400160405280600881526020017f70616e63616b657300000000000000000000000000000000000000000000000081525081526020016040518060400160405280600681526020017f63726570657300000000000000000000000000000000000000000000000000008152508152506008906014620004bc92919062000f57565b506040518061028001604052806040518060400160405280600581526020017f64616e636500000000000000000000000000000000000000000000000000000081525081526020016040518060400160405280600481526020017f7377696d0000000000000000000000000000000000000000000000000000000081525081526020016040518060400160405280600481526020017f636f6f6b0000000000000000000000000000000000000000000000000000000081525081526020016040518060400160405280600481526020017f6a756d700000000000000000000000000000000000000000000000000000000081525081526020016040518060400160405280600481526020017f6d616b650000000000000000000000000000000000000000000000000000000081525081526020016040518060400160405280600381526020017f637279000000000000000000000000000000000000000000000000000000000081525081526020016040518060400160405280600581526020017f736d696c6500000000000000000000000000000000000000000000000000000081525081526020016040518060400160405280600581526020017f6c6175676800000000000000000000000000000000000000000000000000000081525081526020016040518060400160405280600481526020017f7369636b0000000000000000000000000000000000000000000000000000000081525081526020016040518060400160405280600981526020017f696d706f7274616e74000000000000000000000000000000000000000000000081525081526020016040518060400160405280600781526020017f776f72726965640000000000000000000000000000000000000000000000000081525081526020016040518060400160405280600481526020017f6c6f76650000000000000000000000000000000000000000000000000000000081525081526020016040518060400160405280600481526020017f627573790000000000000000000000000000000000000000000000000000000081525081526020016040518060400160405280600681526020017f7363686f6f6c000000000000000000000000000000000000000000000000000081525081526020016040518060400160405280600981526020017f656c656374726f6e73000000000000000000000000000000000000000000000081525081526020016040518060400160405280600781526020017f70686f746f6e730000000000000000000000000000000000000000000000000081525081526020016040518060400160405280600581526020017f6d61706c6500000000000000000000000000000000000000000000000000000081525081526020016040518060400160405280600781526020017f63616e646c65730000000000000000000000000000000000000000000000000081525081526020016040518060400160405280600481526020017f63616e650000000000000000000000000000000000000000000000000000000081525081526020016040518060400160405280600481526020017f67726f770000000000000000000000000000000000000000000000000000000081525081525060099060146200097592919062000f57565b506040518061028001604052806040518060400160405280600481526020017f676f61740000000000000000000000000000000000000000000000000000000081525081526020016040518060400160405280600481526020017f6c696f6e0000000000000000000000000000000000000000000000000000000081525081526020016040518060400160405280600581526020017f746967657200000000000000000000000000000000000000000000000000000081525081526020016040518060400160405280600881526020017f746f72746f69736500000000000000000000000000000000000000000000000081525081526020016040518060400160405280600681526020017f737069646572000000000000000000000000000000000000000000000000000081525081526020016040518060400160405280600381526020017f626174000000000000000000000000000000000000000000000000000000000081525081526020016040518060400160405280600381526020017f636174000000000000000000000000000000000000000000000000000000000081525081526020016040518060400160405280600381526020017f646f67000000000000000000000000000000000000000000000000000000000081525081526020016040518060400160405280600981526020017f616c6c696761746f72000000000000000000000000000000000000000000000081525081526020016040518060400160405280600981526020017f63726f636f64696c65000000000000000000000000000000000000000000000081525081526020016040518060400160405280600881526020017f737175697272656c00000000000000000000000000000000000000000000000081525081526020016040518060400160405280600481526020017f736c75670000000000000000000000000000000000000000000000000000000081525081526020016040518060400160405280600581526020017f736e61696c00000000000000000000000000000000000000000000000000000081525081526020016040518060400160405280600581526020017f6b6f616c6100000000000000000000000000000000000000000000000000000081525081526020016040518060400160405280600481526020017f626561720000000000000000000000000000000000000000000000000000000081525081526020016040518060400160405280600581526020017f6269736f6e00000000000000000000000000000000000000000000000000000081525081526020016040518060400160405280600781526020017f676972616666650000000000000000000000000000000000000000000000000081525081526020016040518060400160405280600481526020017f646561720000000000000000000000000000000000000000000000000000000081525081526020016040518060400160405280600881526020017f656c657068616e7400000000000000000000000000000000000000000000000081525081526020016040518060400160405280600581526020017f686f727365000000000000000000000000000000000000000000000000000000815250815250600a90601462000e2e92919062000f57565b5060405180610160016040528061012e815260200162005e3d61012e9139600b908162000e5c9190620012be565b50670de0b6b3a7640000600e5562093a8060115534801562000e7d57600080fd5b506040518060400160405280600981526020017f5445414d4d4154494300000000000000000000000000000000000000000000008152506040518060400160405280600581526020017f4d41544943000000000000000000000000000000000000000000000000000000815250816000908162000efb9190620012be565b50806001908162000f0d9190620012be565b50505033600c60006101000a81548173ffffffffffffffffffffffffffffffffffffffff021916908373ffffffffffffffffffffffffffffffffffffffff160217905550620013a5565b82805482825590600052602060002090810192821562000fa4579160200282015b8281111562000fa357825182908162000f929190620012be565b509160200191906001019062000f78565b5b50905062000fb3919062000fb7565b5090565b5b8082111562000fdb576000818162000fd1919062000fdf565b5060010162000fb8565b5090565b50805462000fed90620010ad565b6000825580601f1062001001575062001022565b601f01602090049060005260206000209081019062001021919062001025565b5b50565b5b808211156200104057600081600090555060010162001026565b5090565b600081519050919050565b7f4e487b7100000000000000000000000000000000000000000000000000000000600052604160045260246000fd5b7f4e487b7100000000000000000000000000000000000000000000000000000000600052602260045260246000fd5b60006002820490506001821680620010c657607f821691505b602082108103620010dc57620010db6200107e565b5b50919050565b60008190508160005260206000209050919050565b60006020601f8301049050919050565b600082821b905092915050565b600060088302620011467fffffffffffffffffffffffffffffffffffffffffffffffffffffffffffffffff8262001107565b62001152868362001107565b95508019841693508086168417925050509392505050565b6000819050919050565b6000819050919050565b60006200119f6200119962001193846200116a565b62001174565b6200116a565b9050919050565b6000819050919050565b620011bb836200117e565b620011d3620011ca82620011a6565b84845462001114565b825550505050565b600090565b620011ea620011db565b620011f7818484620011b0565b505050565b5b818110156200121f5762001213600082620011e0565b600181019050620011fd565b5050565b601f8211156200126e576200123881620010e2565b6200124384620010f7565b8101602085101562001253578190505b6200126b6200126285620010f7565b830182620011fc565b50505b505050565b600082821c905092915050565b6000620012936000198460080262001273565b1980831691505092915050565b6000620012ae838362001280565b9150826002028217905092915050565b620012c98262001044565b67ffffffffffffffff811115620012e557620012e46200104f565b5b620012f18254620010ad565b620012fe82828562001223565b600060209050601f83116001811462001336576000841562001321578287015190505b6200132d8582620012a0565b8655506200139d565b601f1984166200134686620010e2565b60005b82811015620013705784890151825560018201915060208501945060208101905062001349565b868310156200139057848901516200138c601f89168262001280565b8355505b6001600288020188555050505b505050505050565b614a8880620013b56000396000f3fe6080604052600436106101cd5760003560e01c806378e97925116100f7578063b88d4fde11610095578063e985e9c511610064578063e985e9c5146106a9578063f3d704c8146106e6578063f851a440146106fd578063fd6673f514610728576101cd565b8063b88d4fde146105ea578063c5c4744c14610613578063c87b56dd1461063e578063dfbf53ae1461067b576101cd565b80639023f83d116100d15780639023f83d1461052e57806391825af81461056b57806395d89b4114610596578063a22cb465146105c1576101cd565b806378e97925146104aa578063899a27c8146104d55780638ed8bc93146104f1576101cd565b806333a99e041161016f5780636352211e1161013e5780636352211e146103d957806367884faa1461041657806370740ac91461045657806370a082311461046d576101cd565b806333a99e04146103315780633da1bba11461035c5780633ea8b3bc1461038557806342842e0e146103b0576101cd565b8063095ea7b3116101ab578063095ea7b314610277578063146ca531146102a057806323b872dd146102cb57806329d37499146102f4576101cd565b806301ffc9a7146101d257806306fdde031461020f578063081812fc1461023a575b600080fd5b3480156101de57600080fd5b506101f960048036038101906101f4919061302e565b610753565b6040516102069190613076565b60405180910390f35b34801561021b57600080fd5b50610224610835565b6040516102319190613121565b60405180910390f35b34801561024657600080fd5b50610261600480360381019061025c9190613179565b6108c7565b60405161026e91906131e7565b60405180910390f35b34801561028357600080fd5b5061029e6004803603810190610299919061322e565b61090d565b005b3480156102ac57600080fd5b506102b5610a24565b6040516102c2919061327d565b60405180910390f35b3480156102d757600080fd5b506102f260048036038101906102ed9190613298565b610a2a565b005b34801561030057600080fd5b5061031b60048036038101906103169190613179565b610a8a565b6040516103289190613121565b60405180910390f35b34801561033d57600080fd5b50610346610b84565b6040516103539190613370565b60405180910390f35b34801561036857600080fd5b50610383600480360381019061037e9190613179565b610e93565b005b34801561039157600080fd5b5061039a610f71565b6040516103a7919061339a565b60405180910390f35b3480156103bc57600080fd5b506103d760048036038101906103d29190613298565b610f97565b005b3480156103e557600080fd5b5061040060048036038101906103fb9190613179565b610fb7565b60405161040d91906131e7565b60405180910390f35b34801561042257600080fd5b5061043d600480360381019061043891906133b5565b61103d565b60405161044d94939291906133e2565b60405180910390f35b34801561046257600080fd5b5061046b61108d565b005b34801561047957600080fd5b50610494600480360381019061048f91906133b5565b6111c4565b6040516104a1919061327d565b60405180910390f35b3480156104b657600080fd5b506104bf61127b565b6040516104cc919061327d565b60405180910390f35b6104ef60048036038101906104ea9190613427565b611281565b005b3480156104fd57600080fd5b5061051860048036038101906105139190613179565b611822565b6040516105259190613121565b60405180910390f35b34801561053a57600080fd5b5061055560048036038101906105509190613179565b61191c565b6040516105629190613121565b60405180910390f35b34801561057757600080fd5b50610580611a16565b60405161058d919061327d565b60405180910390f35b3480156105a257600080fd5b506105ab611a1c565b6040516105b89190613121565b60405180910390f35b3480156105cd57600080fd5b506105e860048036038101906105e391906134a6565b611aae565b005b3480156105f657600080fd5b50610611600480360381019061060c919061361b565b611ac4565b005b34801561061f57600080fd5b50610628611b26565b604051610635919061327d565b60405180910390f35b34801561064a57600080fd5b5061066560048036038101906106609190613179565b611b2c565b6040516106729190613121565b60405180910390f35b34801561068757600080fd5b50610690611c3e565b6040516106a094939291906133e2565b60405180910390f35b3480156106b557600080fd5b506106d060048036038101906106cb919061369e565b611c7c565b6040516106dd9190613076565b60405180910390f35b3480156106f257600080fd5b506106fb611d10565b005b34801561070957600080fd5b50610712611e1a565b60405161071f91906131e7565b60405180910390f35b34801561073457600080fd5b5061073d611e40565b60405161074a919061327d565b60405180910390f35b60007f80ac58cd000000000000000000000000000000000000000000000000000000007bffffffffffffffffffffffffffffffffffffffffffffffffffffffff1916827bffffffffffffffffffffffffffffffffffffffffffffffffffffffff1916148061081e57507f5b5e139f000000000000000000000000000000000000000000000000000000007bffffffffffffffffffffffffffffffffffffffffffffffffffffffff1916827bffffffffffffffffffffffffffffffffffffffffffffffffffffffff1916145b8061082e575061082d82611e4d565b5b9050919050565b6060600080546108449061370d565b80601f01602080910402602001604051908101604052809291908181526020018280546108709061370d565b80156108bd5780601f10610892576101008083540402835291602001916108bd565b820191906000526020600020905b8154815290600101906020018083116108a057829003601f168201915b5050505050905090565b60006108d282611eb7565b6004600083815260200190815260200160002060009054906101000a900473ffffffffffffffffffffffffffffffffffffffff169050919050565b600061091882610fb7565b90508073ffffffffffffffffffffffffffffffffffffffff168373ffffffffffffffffffffffffffffffffffffffff1603610988576040517f08c379a000000000000000000000000000000000000000000000000000000000815260040161097f906137b0565b60405180910390fd5b8073ffffffffffffffffffffffffffffffffffffffff166109a7611f02565b73ffffffffffffffffffffffffffffffffffffffff1614806109d657506109d5816109d0611f02565b611c7c565b5b610a15576040517f08c379a0000000000000000000000000000000000000000000000000000000008152600401610a0c90613842565b60405180910390fd5b610a1f8383611f0a565b505050565b600d5481565b610a3b610a35611f02565b82611fc3565b610a7a576040517f08c379a0000000000000000000000000000000000000000000000000000000008152600401610a71906138d4565b60405180910390fd5b610a85838383612058565b505050565b60606000610a9783612351565b604051602001610aa7919061397c565b6040516020818303038152906040528051906020012060001c9050600a8054905081610ad391906139cd565b9050600a8181548110610ae957610ae86139fe565b5b906000526020600020018054610afe9061370d565b80601f0160208091040260200160405190810160405280929190818152602001828054610b2a9061370d565b8015610b775780601f10610b4c57610100808354040283529160200191610b77565b820191906000526020600020905b815481529060010190602001808311610b5a57829003601f168201915b5050505050915050919050565b610b8c612eab565b600c60009054906101000a900473ffffffffffffffffffffffffffffffffffffffff1673ffffffffffffffffffffffffffffffffffffffff163373ffffffffffffffffffffffffffffffffffffffff1614610c1c576040517f08c379a0000000000000000000000000000000000000000000000000000000008152600401610c1390613a79565b60405180910390fd5b42600f819055506000423344604051602001610c3a93929190613b02565b6040516020818303038152906040528051906020012060001c9050600060158054905082610c6891906139cd565b905060158181548110610c7e57610c7d6139fe565b5b906000526020600020906004020160166000820154816000015560018201548160010155600282015481600201556003820160009054906101000a900473ffffffffffffffffffffffffffffffffffffffff168160030160006101000a81548173ffffffffffffffffffffffffffffffffffffffff021916908373ffffffffffffffffffffffffffffffffffffffff160217905550905050601660030160009054906101000a900473ffffffffffffffffffffffffffffffffffffffff16601060006101000a81548173ffffffffffffffffffffffffffffffffffffffff021916908373ffffffffffffffffffffffffffffffffffffffff16021790555060156000610d8a9190612ee9565b601b6000610d989190612f0d565b601a6000610da69190612f2e565b601060009054906101000a900473ffffffffffffffffffffffffffffffffffffffff1673ffffffffffffffffffffffffffffffffffffffff167fe68021786913c099ef3624c6901077fae5528aa314995830faa797bd04787f1960405160405180910390a260166040518060800160405290816000820154815260200160018201548152602001600282015481526020016003820160009054906101000a900473ffffffffffffffffffffffffffffffffffffffff1673ffffffffffffffffffffffffffffffffffffffff1673ffffffffffffffffffffffffffffffffffffffff16815250509250505090565b600c60009054906101000a900473ffffffffffffffffffffffffffffffffffffffff1673ffffffffffffffffffffffffffffffffffffffff163373ffffffffffffffffffffffffffffffffffffffff1614610f23576040517f08c379a0000000000000000000000000000000000000000000000000000000008152600401610f1a90613a79565b60405180910390fd5b600d548111610f3157600080fd5b4260138190555080600d81905550600d547fa35bd591310404f547e67d0f261a54d0a2a7606bf1695c5e9134f4259805eb7c60405160405180910390a250565b601060009054906101000a900473ffffffffffffffffffffffffffffffffffffffff1681565b610fb283838360405180602001604052806000815250611ac4565b505050565b600080610fc38361241f565b9050600073ffffffffffffffffffffffffffffffffffffffff168173ffffffffffffffffffffffffffffffffffffffff1603611034576040517f08c379a000000000000000000000000000000000000000000000000000000000815260040161102b90613b8b565b60405180910390fd5b80915050919050565b60146020528060005260406000206000915090508060000154908060010154908060020154908060030160009054906101000a900473ffffffffffffffffffffffffffffffffffffffff16905084565b601060009054906101000a900473ffffffffffffffffffffffffffffffffffffffff1673ffffffffffffffffffffffffffffffffffffffff163373ffffffffffffffffffffffffffffffffffffffff16146110e757600080fd5b601154600f546110f79190613bda565b421061110257600080fd5b601060009054906101000a900473ffffffffffffffffffffffffffffffffffffffff1673ffffffffffffffffffffffffffffffffffffffff166108fc601c6000600d548152602001908152602001600020549081150290604051600060405180830381858888f1935050505015801561117f573d6000803e3d6000fd5b50601c6000600d548152602001908152602001600020547f875fb1923991f0b894b48d4168724e9f3e21423a958ba2f8599225acef69acb860405160405180910390a2565b60008073ffffffffffffffffffffffffffffffffffffffff168273ffffffffffffffffffffffffffffffffffffffff1603611234576040517f08c379a000000000000000000000000000000000000000000000000000000000815260040161122b90613c80565b60405180910390fd5b600360008373ffffffffffffffffffffffffffffffffffffffff1673ffffffffffffffffffffffffffffffffffffffff168152602001908152602001600020549050919050565b60135481565b600c60009054906101000a900473ffffffffffffffffffffffffffffffffffffffff1673ffffffffffffffffffffffffffffffffffffffff163373ffffffffffffffffffffffffffffffffffffffff1603611311576040517f08c379a000000000000000000000000000000000000000000000000000000000815260040161130890613cec565b60405180910390fd5b6000601460003373ffffffffffffffffffffffffffffffffffffffff1673ffffffffffffffffffffffffffffffffffffffff1681526020019081526020016000206040518060800160405290816000820154815260200160018201548152602001600282015481526020016003820160009054906101000a900473ffffffffffffffffffffffffffffffffffffffff1673ffffffffffffffffffffffffffffffffffffffff1673ffffffffffffffffffffffffffffffffffffffff1681525050905060005b601a805490508110156114ab5784601a82815481106113f8576113f76139fe565b5b90600052602060002001541415801561142f575083601a8281548110611421576114206139fe565b5b906000526020600020015414155b8015611459575082601a828154811061144b5761144a6139fe565b5b906000526020600020015414155b611498576040517f08c379a000000000000000000000000000000000000000000000000000000000815260040161148f90613d58565b60405180910390fd5b80806114a390613d78565b9150506113d6565b5034600e54146114ba57600080fd5b60005b601b80549050811015611589573373ffffffffffffffffffffffffffffffffffffffff16601b82815481106114f5576114f46139fe565b5b9060005260206000200160009054906101000a900473ffffffffffffffffffffffffffffffffffffffff1673ffffffffffffffffffffffffffffffffffffffff1603611576576040517f08c379a000000000000000000000000000000000000000000000000000000000815260040161156d90613e32565b60405180910390fd5b808061158190613d78565b9150506114bd565b50601b339080600181540180825580915050600190039060005260206000200160009091909190916101000a81548173ffffffffffffffffffffffffffffffffffffffff021916908373ffffffffffffffffffffffffffffffffffffffff160217905550601a849080600181540180825580915050600190039060005260206000200160009091909190915055601a839080600181540180825580915050600190039060005260206000200160009091909190915055601a82908060018154018082558091505060019003906000526020600020016000909190919091505560405180608001604052808581526020018481526020018381526020013373ffffffffffffffffffffffffffffffffffffffff168152509050601581908060018154018082558091505060019003906000526020600020906004020160009091909190915060008201518160000155602082015181600101556040820151816002015560608201518160030160006101000a81548173ffffffffffffffffffffffffffffffffffffffff021916908373ffffffffffffffffffffffffffffffffffffffff1602179055505050600a60158054905010611773576040517fe78ec53800000000000000000000000000000000000000000000000000000000815260040160405180910390fd5b60006709b6e64a8ec60000346117899190613e52565b9050806012600082825461179d9190613bda565b9250508190555080601c6000600d54815260200190815260200160002060008282546117c99190613bda565b925050819055506117d8611d10565b3373ffffffffffffffffffffffffffffffffffffffff167f3ad998d3a676941441f1e91022d02d322f33ad2140a07e34162abd69966609f860405160405180910390a25050505050565b6060600061182f83612351565b60405160200161183f9190613ed2565b6040516020818303038152906040528051906020012060001c90506008805490508161186b91906139cd565b905060088181548110611881576118806139fe565b5b9060005260206000200180546118969061370d565b80601f01602080910402602001604051908101604052809291908181526020018280546118c29061370d565b801561190f5780601f106118e45761010080835404028352916020019161190f565b820191906000526020600020905b8154815290600101906020018083116118f257829003601f168201915b5050505050915050919050565b6060600061192983612351565b6040516020016119399190613f40565b6040516020818303038152906040528051906020012060001c90506009805490508161196591906139cd565b90506009818154811061197b5761197a6139fe565b5b9060005260206000200180546119909061370d565b80601f01602080910402602001604051908101604052809291908181526020018280546119bc9061370d565b8015611a095780601f106119de57610100808354040283529160200191611a09565b820191906000526020600020905b8154815290600101906020018083116119ec57829003601f168201915b5050505050915050919050565b600f5481565b606060018054611a2b9061370d565b80601f0160208091040260200160405190810160405280929190818152602001828054611a579061370d565b8015611aa45780601f10611a7957610100808354040283529160200191611aa4565b820191906000526020600020905b815481529060010190602001808311611a8757829003601f168201915b5050505050905090565b611ac0611ab9611f02565b838361245c565b5050565b611ad5611acf611f02565b83611fc3565b611b14576040517f08c379a0000000000000000000000000000000000000000000000000000000008152600401611b0b906138d4565b60405180910390fd5b611b20848484846125c8565b50505050565b60125481565b6060611b3782611eb7565b6000600660008481526020019081526020016000208054611b579061370d565b80601f0160208091040260200160405190810160405280929190818152602001828054611b839061370d565b8015611bd05780601f10611ba557610100808354040283529160200191611bd0565b820191906000526020600020905b815481529060010190602001808311611bb357829003601f168201915b505050505090506000611be1612624565b90506000815103611bf6578192505050611c39565b600082511115611c2b578082604051602001611c13929190613f62565b60405160208183030381529060405292505050611c39565b611c348461263b565b925050505b919050565b60168060000154908060010154908060020154908060030160009054906101000a900473ffffffffffffffffffffffffffffffffffffffff16905084565b6000600560008473ffffffffffffffffffffffffffffffffffffffff1673ffffffffffffffffffffffffffffffffffffffff16815260200190815260200160002060008373ffffffffffffffffffffffffffffffffffffffff1673ffffffffffffffffffffffffffffffffffffffff16815260200190815260200160002060009054906101000a900460ff16905092915050565b6000611d1c60076126a3565b90506000611d2982611822565b90506000611d368361191c565b90506000611d4384610a8a565b90506000838383604051602001611d5c93929190613f86565b60405160208183030381529060405290506000600b858585604051602001611d87949392919061409b565b60405160208183030381529060405290506000611dcc83611da7846126b1565b604051602001611db8929190614214565b6040516020818303038152906040526126b1565b9050600081604051602001611de191906142a5565b6040516020818303038152906040529050611dfc3389612848565b611e068882612866565b611e1060076128d3565b5050505050505050565b600c60009054906101000a900473ffffffffffffffffffffffffffffffffffffffff1681565b6000601580549050905090565b60007f01ffc9a7000000000000000000000000000000000000000000000000000000007bffffffffffffffffffffffffffffffffffffffffffffffffffffffff1916827bffffffffffffffffffffffffffffffffffffffffffffffffffffffff1916149050919050565b611ec0816128e9565b611eff576040517f08c379a0000000000000000000000000000000000000000000000000000000008152600401611ef690613b8b565b60405180910390fd5b50565b600033905090565b816004600083815260200190815260200160002060006101000a81548173ffffffffffffffffffffffffffffffffffffffff021916908373ffffffffffffffffffffffffffffffffffffffff160217905550808273ffffffffffffffffffffffffffffffffffffffff16611f7d83610fb7565b73ffffffffffffffffffffffffffffffffffffffff167f8c5be1e5ebec7d5bd14f71427d1e84f3dd0314c0f7b2291e5b200ac8c7c3b92560405160405180910390a45050565b600080611fcf83610fb7565b90508073ffffffffffffffffffffffffffffffffffffffff168473ffffffffffffffffffffffffffffffffffffffff16148061201157506120108185611c7c565b5b8061204f57508373ffffffffffffffffffffffffffffffffffffffff16612037846108c7565b73ffffffffffffffffffffffffffffffffffffffff16145b91505092915050565b8273ffffffffffffffffffffffffffffffffffffffff1661207882610fb7565b73ffffffffffffffffffffffffffffffffffffffff16146120ce576040517f08c379a00000000000000000000000000000000000000000000000000000000081526004016120c590614339565b60405180910390fd5b600073ffffffffffffffffffffffffffffffffffffffff168273ffffffffffffffffffffffffffffffffffffffff160361213d576040517f08c379a0000000000000000000000000000000000000000000000000000000008152600401612134906143cb565b60405180910390fd5b61214a838383600161292a565b8273ffffffffffffffffffffffffffffffffffffffff1661216a82610fb7565b73ffffffffffffffffffffffffffffffffffffffff16146121c0576040517f08c379a00000000000000000000000000000000000000000000000000000000081526004016121b790614339565b60405180910390fd5b6004600082815260200190815260200160002060006101000a81549073ffffffffffffffffffffffffffffffffffffffff02191690556001600360008573ffffffffffffffffffffffffffffffffffffffff1673ffffffffffffffffffffffffffffffffffffffff168152602001908152602001600020600082825403925050819055506001600360008473ffffffffffffffffffffffffffffffffffffffff1673ffffffffffffffffffffffffffffffffffffffff16815260200190815260200160002060008282540192505081905550816002600083815260200190815260200160002060006101000a81548173ffffffffffffffffffffffffffffffffffffffff021916908373ffffffffffffffffffffffffffffffffffffffff160217905550808273ffffffffffffffffffffffffffffffffffffffff168473ffffffffffffffffffffffffffffffffffffffff167fddf252ad1be2c89b69c2b068fc378daa952ba7f163c4a11628f55a4df523b3ef60405160405180910390a461234c8383836001612930565b505050565b60606000600161236084612936565b01905060008167ffffffffffffffff81111561237f5761237e6134f0565b5b6040519080825280601f01601f1916602001820160405280156123b15781602001600182028036833780820191505090505b509050600082602001820190505b600115612414578080600190039150507f3031323334353637383961626364656600000000000000000000000000000000600a86061a8153600a85816124085761240761399e565b5b049450600085036123bf575b819350505050919050565b60006002600083815260200190815260200160002060009054906101000a900473ffffffffffffffffffffffffffffffffffffffff169050919050565b8173ffffffffffffffffffffffffffffffffffffffff168373ffffffffffffffffffffffffffffffffffffffff16036124ca576040517f08c379a00000000000000000000000000000000000000000000000000000000081526004016124c190614437565b60405180910390fd5b80600560008573ffffffffffffffffffffffffffffffffffffffff1673ffffffffffffffffffffffffffffffffffffffff16815260200190815260200160002060008473ffffffffffffffffffffffffffffffffffffffff1673ffffffffffffffffffffffffffffffffffffffff16815260200190815260200160002060006101000a81548160ff0219169083151502179055508173ffffffffffffffffffffffffffffffffffffffff168373ffffffffffffffffffffffffffffffffffffffff167f17307eab39ab6107e8899845ad3d59bd9653f200f220920489ca2b5937696c31836040516125bb9190613076565b60405180910390a3505050565b6125d3848484612058565b6125df84848484612a89565b61261e576040517f08c379a0000000000000000000000000000000000000000000000000000000008152600401612615906144c9565b60405180910390fd5b50505050565b606060405180602001604052806000815250905090565b606061264682611eb7565b6000612650612624565b90506000815111612670576040518060200160405280600081525061269b565b8061267a84612351565b60405160200161268b929190613f62565b6040516020818303038152906040525b915050919050565b600081600001549050919050565b6060600082519050600081036126d95760405180602001604052806000815250915050612843565b600060036002836126ea9190613bda565b6126f491906144e9565b6004612700919061451a565b905060006020826127119190613bda565b67ffffffffffffffff81111561272a576127296134f0565b5b6040519080825280601f01601f19166020018201604052801561275c5781602001600182028036833780820191505090505b5090506000604051806060016040528060408152602001614a13604091399050600181016020830160005b868110156128005760038101905062ffffff818a015116603f8160121c168401518060081b905060ff603f83600c1c1686015116810190508060081b905060ff603f8360061c1686015116810190508060081b905060ff603f831686015116810190508060e01b90508084526004840193505050612787565b50600386066001811461281a576002811461282a57612835565b613d3d60f01b6002830352612835565b603d60f81b60018303525b508484525050819450505050505b919050565b612862828260405180602001604052806000815250612c10565b5050565b61286f826128e9565b6128ae576040517f08c379a00000000000000000000000000000000000000000000000000000000081526004016128a5906145ce565b60405180910390fd5b806006600084815260200190815260200160002090816128ce9190614785565b505050565b6001816000016000828254019250508190555050565b60008073ffffffffffffffffffffffffffffffffffffffff1661290b8361241f565b73ffffffffffffffffffffffffffffffffffffffff1614159050919050565b50505050565b50505050565b600080600090507a184f03e93ff9f4daa797ed6e38ed64bf6a1f0100000000000000008310612994577a184f03e93ff9f4daa797ed6e38ed64bf6a1f010000000000000000838161298a5761298961399e565b5b0492506040810190505b6d04ee2d6d415b85acef810000000083106129d1576d04ee2d6d415b85acef810000000083816129c7576129c661399e565b5b0492506020810190505b662386f26fc100008310612a0057662386f26fc1000083816129f6576129f561399e565b5b0492506010810190505b6305f5e1008310612a29576305f5e1008381612a1f57612a1e61399e565b5b0492506008810190505b6127108310612a4e576127108381612a4457612a4361399e565b5b0492506004810190505b60648310612a715760648381612a6757612a6661399e565b5b0492506002810190505b600a8310612a80576001810190505b80915050919050565b6000612aaa8473ffffffffffffffffffffffffffffffffffffffff16612c6b565b15612c03578373ffffffffffffffffffffffffffffffffffffffff1663150b7a02612ad3611f02565b8786866040518563ffffffff1660e01b8152600401612af594939291906148ac565b6020604051808303816000875af1925050508015612b3157506040513d601f19601f82011682018060405250810190612b2e919061490d565b60015b612bb3573d8060008114612b61576040519150601f19603f3d011682016040523d82523d6000602084013e612b66565b606091505b506000815103612bab576040517f08c379a0000000000000000000000000000000000000000000000000000000008152600401612ba2906144c9565b60405180910390fd5b805181602001fd5b63150b7a0260e01b7bffffffffffffffffffffffffffffffffffffffffffffffffffffffff1916817bffffffffffffffffffffffffffffffffffffffffffffffffffffffff191614915050612c08565b600190505b949350505050565b612c1a8383612c8e565b612c276000848484612a89565b612c66576040517f08c379a0000000000000000000000000000000000000000000000000000000008152600401612c5d906144c9565b60405180910390fd5b505050565b6000808273ffffffffffffffffffffffffffffffffffffffff163b119050919050565b600073ffffffffffffffffffffffffffffffffffffffff168273ffffffffffffffffffffffffffffffffffffffff1603612cfd576040517f08c379a0000000000000000000000000000000000000000000000000000000008152600401612cf490614986565b60405180910390fd5b612d06816128e9565b15612d46576040517f08c379a0000000000000000000000000000000000000000000000000000000008152600401612d3d906149f2565b60405180910390fd5b612d5460008383600161292a565b612d5d816128e9565b15612d9d576040517f08c379a0000000000000000000000000000000000000000000000000000000008152600401612d94906149f2565b60405180910390fd5b6001600360008473ffffffffffffffffffffffffffffffffffffffff1673ffffffffffffffffffffffffffffffffffffffff16815260200190815260200160002060008282540192505081905550816002600083815260200190815260200160002060006101000a81548173ffffffffffffffffffffffffffffffffffffffff021916908373ffffffffffffffffffffffffffffffffffffffff160217905550808273ffffffffffffffffffffffffffffffffffffffff16600073ffffffffffffffffffffffffffffffffffffffff167fddf252ad1be2c89b69c2b068fc378daa952ba7f163c4a11628f55a4df523b3ef60405160405180910390a4612ea7600083836001612930565b5050565b6040518060800160405280600081526020016000815260200160008152602001600073ffffffffffffffffffffffffffffffffffffffff1681525090565b5080546000825560040290600052602060002090810190612f0a9190612f4f565b50565b5080546000825590600052602060002090810190612f2b9190612fa5565b50565b5080546000825590600052602060002090810190612f4c9190612fa5565b50565b5b80821115612fa157600080820160009055600182016000905560028201600090556003820160006101000a81549073ffffffffffffffffffffffffffffffffffffffff021916905550600401612f50565b5090565b5b80821115612fbe576000816000905550600101612fa6565b5090565b6000604051905090565b600080fd5b600080fd5b60007fffffffff0000000000000000000000000000000000000000000000000000000082169050919050565b61300b81612fd6565b811461301657600080fd5b50565b60008135905061302881613002565b92915050565b60006020828403121561304457613043612fcc565b5b600061305284828501613019565b91505092915050565b60008115159050919050565b6130708161305b565b82525050565b600060208201905061308b6000830184613067565b92915050565b600081519050919050565b600082825260208201905092915050565b60005b838110156130cb5780820151818401526020810190506130b0565b60008484015250505050565b6000601f19601f8301169050919050565b60006130f382613091565b6130fd818561309c565b935061310d8185602086016130ad565b613116816130d7565b840191505092915050565b6000602082019050818103600083015261313b81846130e8565b905092915050565b6000819050919050565b61315681613143565b811461316157600080fd5b50565b6000813590506131738161314d565b92915050565b60006020828403121561318f5761318e612fcc565b5b600061319d84828501613164565b91505092915050565b600073ffffffffffffffffffffffffffffffffffffffff82169050919050565b60006131d1826131a6565b9050919050565b6131e1816131c6565b82525050565b60006020820190506131fc60008301846131d8565b92915050565b61320b816131c6565b811461321657600080fd5b50565b60008135905061322881613202565b92915050565b6000806040838503121561324557613244612fcc565b5b600061325385828601613219565b925050602061326485828601613164565b9150509250929050565b61327781613143565b82525050565b6000602082019050613292600083018461326e565b92915050565b6000806000606084860312156132b1576132b0612fcc565b5b60006132bf86828701613219565b93505060206132d086828701613219565b92505060406132e186828701613164565b9150509250925092565b6132f481613143565b82525050565b6000613305826131a6565b9050919050565b613315816132fa565b82525050565b60808201600082015161333160008501826132eb565b50602082015161334460208501826132eb565b50604082015161335760408501826132eb565b50606082015161336a606085018261330c565b50505050565b6000608082019050613385600083018461331b565b92915050565b613394816132fa565b82525050565b60006020820190506133af600083018461338b565b92915050565b6000602082840312156133cb576133ca612fcc565b5b60006133d984828501613219565b91505092915050565b60006080820190506133f7600083018761326e565b613404602083018661326e565b613411604083018561326e565b61341e606083018461338b565b95945050505050565b6000806000606084860312156134405761343f612fcc565b5b600061344e86828701613164565b935050602061345f86828701613164565b925050604061347086828701613164565b9150509250925092565b6134838161305b565b811461348e57600080fd5b50565b6000813590506134a08161347a565b92915050565b600080604083850312156134bd576134bc612fcc565b5b60006134cb85828601613219565b92505060206134dc85828601613491565b9150509250929050565b600080fd5b600080fd5b7f4e487b7100000000000000000000000000000000000000000000000000000000600052604160045260246000fd5b613528826130d7565b810181811067ffffffffffffffff82111715613547576135466134f0565b5b80604052505050565b600061355a612fc2565b9050613566828261351f565b919050565b600067ffffffffffffffff821115613586576135856134f0565b5b61358f826130d7565b9050602081019050919050565b82818337600083830152505050565b60006135be6135b98461356b565b613550565b9050828152602081018484840111156135da576135d96134eb565b5b6135e584828561359c565b509392505050565b600082601f830112613602576136016134e6565b5b81356136128482602086016135ab565b91505092915050565b6000806000806080858703121561363557613634612fcc565b5b600061364387828801613219565b945050602061365487828801613219565b935050604061366587828801613164565b925050606085013567ffffffffffffffff81111561368657613685612fd1565b5b613692878288016135ed565b91505092959194509250565b600080604083850312156136b5576136b4612fcc565b5b60006136c385828601613219565b92505060206136d485828601613219565b9150509250929050565b7f4e487b7100000000000000000000000000000000000000000000000000000000600052602260045260246000fd5b6000600282049050600182168061372557607f821691505b602082108103613738576137376136de565b5b50919050565b7f4552433732313a20617070726f76616c20746f2063757272656e74206f776e6560008201527f7200000000000000000000000000000000000000000000000000000000000000602082015250565b600061379a60218361309c565b91506137a58261373e565b604082019050919050565b600060208201905081810360008301526137c98161378d565b9050919050565b7f4552433732313a20617070726f76652063616c6c6572206973206e6f7420746f60008201527f6b656e206f776e6572206f7220617070726f76656420666f7220616c6c000000602082015250565b600061382c603d8361309c565b9150613837826137d0565b604082019050919050565b6000602082019050818103600083015261385b8161381f565b9050919050565b7f4552433732313a2063616c6c6572206973206e6f7420746f6b656e206f776e6560008201527f72206f7220617070726f76656400000000000000000000000000000000000000602082015250565b60006138be602d8361309c565b91506138c982613862565b604082019050919050565b600060208201905081810360008301526138ed816138b1565b9050919050565b600081905092915050565b7f5448495244776f72647300000000000000000000000000000000000000000000600082015250565b6000613935600a836138f4565b9150613940826138ff565b600a82019050919050565b600061395682613091565b61396081856138f4565b93506139708185602086016130ad565b80840191505092915050565b600061398782613928565b9150613993828461394b565b915081905092915050565b7f4e487b7100000000000000000000000000000000000000000000000000000000600052601260045260246000fd5b60006139d882613143565b91506139e383613143565b9250826139f3576139f261399e565b5b828206905092915050565b7f4e487b7100000000000000000000000000000000000000000000000000000000600052603260045260246000fd5b7f4f6e6c79207468652061646d696e2063616e2061636365737320746869730000600082015250565b6000613a63601e8361309c565b9150613a6e82613a2d565b602082019050919050565b60006020820190508181036000830152613a9281613a56565b9050919050565b6000819050919050565b613ab4613aaf82613143565b613a99565b82525050565b60008160601b9050919050565b6000613ad282613aba565b9050919050565b6000613ae482613ac7565b9050919050565b613afc613af7826131c6565b613ad9565b82525050565b6000613b0e8286613aa3565b602082019150613b1e8285613aeb565b601482019150613b2e8284613aa3565b602082019150819050949350505050565b7f4552433732313a20696e76616c696420746f6b656e2049440000000000000000600082015250565b6000613b7560188361309c565b9150613b8082613b3f565b602082019050919050565b60006020820190508181036000830152613ba481613b68565b9050919050565b7f4e487b7100000000000000000000000000000000000000000000000000000000600052601160045260246000fd5b6000613be582613143565b9150613bf083613143565b9250828201905080821115613c0857613c07613bab565b5b92915050565b7f4552433732313a2061646472657373207a65726f206973206e6f74206120766160008201527f6c6964206f776e65720000000000000000000000000000000000000000000000602082015250565b6000613c6a60298361309c565b9150613c7582613c0e565b604082019050919050565b60006020820190508181036000830152613c9981613c5d565b9050919050565b7f41646d696e2063616e6e6f742070617274696369706174650000000000000000600082015250565b6000613cd660188361309c565b9150613ce182613ca0565b602082019050919050565b60006020820190508181036000830152613d0581613cc9565b9050919050565b7f506c65617365207069636b2061207365706172617465206e756d626572000000600082015250565b6000613d42601d8361309c565b9150613d4d82613d0c565b602082019050919050565b60006020820190508181036000830152613d7181613d35565b9050919050565b6000613d8382613143565b91507fffffffffffffffffffffffffffffffffffffffffffffffffffffffffffffffff8203613db557613db4613bab565b5b600182019050919050565b7f596f75206861766520616c72656164792070617274696369706174656420696e60008201527f207468697320726f756e64000000000000000000000000000000000000000000602082015250565b6000613e1c602b8361309c565b9150613e2782613dc0565b604082019050919050565b60006020820190508181036000830152613e4b81613e0f565b9050919050565b6000613e5d82613143565b9150613e6883613143565b9250828203905081811115613e8057613e7f613bab565b5b92915050565b7f4649525354776f72647300000000000000000000000000000000000000000000600082015250565b6000613ebc600a836138f4565b9150613ec782613e86565b600a82019050919050565b6000613edd82613eaf565b9150613ee9828461394b565b915081905092915050565b7f5345434f4e44776f726473000000000000000000000000000000000000000000600082015250565b6000613f2a600b836138f4565b9150613f3582613ef4565b600b82019050919050565b6000613f4b82613f1d565b9150613f57828461394b565b915081905092915050565b6000613f6e828561394b565b9150613f7a828461394b565b91508190509392505050565b6000613f92828661394b565b9150613f9e828561394b565b9150613faa828461394b565b9150819050949350505050565b60008190508160005260206000209050919050565b60008154613fd98161370d565b613fe381866138f4565b94506001821660008114613ffe576001811461401357614046565b60ff1983168652811515820286019350614046565b61401c85613fb7565b60005b8381101561403e5781548189015260018201915060208101905061401f565b838801955050505b50505092915050565b7f3c2f746578743e3c2f7376673e00000000000000000000000000000000000000600082015250565b6000614085600d836138f4565b91506140908261404f565b600d82019050919050565b60006140a78287613fcc565b91506140b3828661394b565b91506140bf828561394b565b91506140cb828461394b565b91506140d682614078565b915081905095945050505050565b7f7b226e616d65223a202200000000000000000000000000000000000000000000600082015250565b600061411a600a836138f4565b9150614125826140e4565b600a82019050919050565b7f222c20226465736372697074696f6e223a20225465616d204d61746963204e4660008201527f54206c6f747465727920636f6c6c656374696f6e222c2022696d61676522203a60208201527f2022646174613a696d6167652f7376672b786d6c3b6261736536342c00000000604082015250565b60006141b2605c836138f4565b91506141bd82614130565b605c82019050919050565b7f227d000000000000000000000000000000000000000000000000000000000000600082015250565b60006141fe6002836138f4565b9150614209826141c8565b600282019050919050565b600061421f8261410d565b915061422b828561394b565b9150614236826141a5565b9150614242828461394b565b915061424d826141f1565b91508190509392505050565b7f646174613a6170706c69636174696f6e2f6a736f6e3b6261736536342c000000600082015250565b600061428f601d836138f4565b915061429a82614259565b601d82019050919050565b60006142b082614282565b91506142bc828461394b565b915081905092915050565b7f4552433732313a207472616e736665722066726f6d20696e636f72726563742060008201527f6f776e6572000000000000000000000000000000000000000000000000000000602082015250565b600061432360258361309c565b915061432e826142c7565b604082019050919050565b6000602082019050818103600083015261435281614316565b9050919050565b7f4552433732313a207472616e7366657220746f20746865207a65726f2061646460008201527f7265737300000000000000000000000000000000000000000000000000000000602082015250565b60006143b560248361309c565b91506143c082614359565b604082019050919050565b600060208201905081810360008301526143e4816143a8565b9050919050565b7f4552433732313a20617070726f766520746f2063616c6c657200000000000000600082015250565b600061442160198361309c565b915061442c826143eb565b602082019050919050565b6000602082019050818103600083015261445081614414565b9050919050565b7f4552433732313a207472616e7366657220746f206e6f6e20455243373231526560008201527f63656976657220696d706c656d656e7465720000000000000000000000000000602082015250565b60006144b360328361309c565b91506144be82614457565b604082019050919050565b600060208201905081810360008301526144e2816144a6565b9050919050565b60006144f482613143565b91506144ff83613143565b92508261450f5761450e61399e565b5b828204905092915050565b600061452582613143565b915061453083613143565b925082820261453e81613143565b9150828204841483151761455557614554613bab565b5b5092915050565b7f45524337323155524953746f726167653a2055524920736574206f66206e6f6e60008201527f6578697374656e7420746f6b656e000000000000000000000000000000000000602082015250565b60006145b8602e8361309c565b91506145c38261455c565b604082019050919050565b600060208201905081810360008301526145e7816145ab565b9050919050565b60006020601f8301049050919050565b600082821b905092915050565b60006008830261463b7fffffffffffffffffffffffffffffffffffffffffffffffffffffffffffffffff826145fe565b61464586836145fe565b95508019841693508086168417925050509392505050565b6000819050919050565b600061468261467d61467884613143565b61465d565b613143565b9050919050565b6000819050919050565b61469c83614667565b6146b06146a882614689565b84845461460b565b825550505050565b600090565b6146c56146b8565b6146d0818484614693565b505050565b5b818110156146f4576146e96000826146bd565b6001810190506146d6565b5050565b601f8211156147395761470a81613fb7565b614713846145ee565b81016020851015614722578190505b61473661472e856145ee565b8301826146d5565b50505b505050565b600082821c905092915050565b600061475c6000198460080261473e565b1980831691505092915050565b6000614775838361474b565b9150826002028217905092915050565b61478e82613091565b67ffffffffffffffff8111156147a7576147a66134f0565b5b6147b1825461370d565b6147bc8282856146f8565b600060209050601f8311600181146147ef57600084156147dd578287015190505b6147e78582614769565b86555061484f565b601f1984166147fd86613fb7565b60005b8281101561482557848901518255600182019150602085019450602081019050614800565b86831015614842578489015161483e601f89168261474b565b8355505b6001600288020188555050505b505050505050565b600081519050919050565b600082825260208201905092915050565b600061487e82614857565b6148888185614862565b93506148988185602086016130ad565b6148a1816130d7565b840191505092915050565b60006080820190506148c160008301876131d8565b6148ce60208301866131d8565b6148db604083018561326e565b81810360608301526148ed8184614873565b905095945050505050565b60008151905061490781613002565b92915050565b60006020828403121561492357614922612fcc565b5b6000614931848285016148f8565b91505092915050565b7f4552433732313a206d696e7420746f20746865207a65726f2061646472657373600082015250565b600061497060208361309c565b915061497b8261493a565b602082019050919050565b6000602082019050818103600083015261499f81614963565b9050919050565b7f4552433732313a20746f6b656e20616c7265616479206d696e74656400000000600082015250565b60006149dc601c8361309c565b91506149e7826149a6565b602082019050919050565b60006020820190508181036000830152614a0b816149cf565b905091905056fe4142434445464748494a4b4c4d4e4f505152535455565758595a6162636465666768696a6b6c6d6e6f707172737475767778797a303132333435363738392b2fa2646970667358221220f32f996f18f0d810635a8326fe12e45d11302461067f45780c5a8751920ea60264736f6c634300081100333c73766720786d6c6e733d27687474703a2f2f7777772e77332e6f72672f323030302f73766727207072657365727665417370656374526174696f3d27784d696e594d696e206d656574272076696577426f783d273020302033353020333530273e3c7374796c653e2e62617365207b2066696c6c3a2070696e6b3b20666f6e742d66616d696c793a2073657269663b20666f6e742d73697a653a20323470783b207d3c2f7374796c653e3c726563742077696474683d273130302527206865696768743d2731303025272066696c6c3d27626c61636b27202f3e3c7465787420783d273530252720793d273530252720636c6173733d27626173652720646f6d696e616e742d626173656c696e653d276d6964646c652720746578742d616e63686f723d276d6964646c65273e",
  "linkReferences": {},
  "deployedLinkReferences": {}
}